{
  "address": "0xE28303aB1DDfAA05caad98f0197A20ebB82BF4d7",
  "abi": [
    {
      "inputs": [
        {
          "internalType": "int256",
          "name": "errorCode",
          "type": "int256"
        }
      ],
      "name": "ActorError",
      "type": "error"
    },
    {
      "inputs": [],
      "name": "ActorNotFound",
      "type": "error"
    },
    {
      "inputs": [],
      "name": "FailToCallActor",
      "type": "error"
    },
    {
      "inputs": [],
      "name": "InvalidAddress",
      "type": "error"
    },
    {
      "inputs": [
        {
          "internalType": "uint64",
          "name": "",
          "type": "uint64"
        }
      ],
      "name": "InvalidCodec",
      "type": "error"
    },
    {
      "inputs": [],
      "name": "InvalidResponseLength",
      "type": "error"
    },
    {
      "inputs": [],
      "name": "NegativeValueNotAllowed",
      "type": "error"
    },
    {
      "inputs": [
        {
          "internalType": "uint256",
          "name": "balance",
          "type": "uint256"
        },
        {
          "internalType": "uint256",
          "name": "value",
          "type": "uint256"
        }
      ],
      "name": "NotEnoughBalance",
      "type": "error"
    },
    {
      "anonymous": false,
      "inputs": [
        {
          "indexed": true,
          "internalType": "bytes32",
          "name": "id",
          "type": "bytes32"
        },
        {
          "indexed": false,
          "internalType": "uint64",
          "name": "size",
          "type": "uint64"
        },
        {
          "indexed": true,
          "internalType": "bool",
          "name": "verified",
          "type": "bool"
        },
        {
          "indexed": false,
          "internalType": "uint256",
          "name": "price",
          "type": "uint256"
        }
      ],
      "name": "DealProposalCreate",
      "type": "event"
    },
    {
      "anonymous": false,
      "inputs": [
        {
          "indexed": true,
          "internalType": "address",
          "name": "previousOwner",
          "type": "address"
        },
        {
          "indexed": true,
          "internalType": "address",
          "name": "newOwner",
          "type": "address"
        }
      ],
      "name": "OwnershipTransferred",
      "type": "event"
    },
    {
      "anonymous": false,
      "inputs": [
        {
          "indexed": false,
          "internalType": "string",
          "name": "received",
          "type": "string"
        }
      ],
      "name": "ReceivedDataCap",
      "type": "event"
    },
    {
      "inputs": [],
      "name": "AUTHENTICATE_MESSAGE_METHOD_NUM",
      "outputs": [
        {
          "internalType": "uint64",
          "name": "",
          "type": "uint64"
        }
      ],
      "stateMutability": "view",
      "type": "function"
    },
    {
      "inputs": [],
      "name": "DATACAP_ACTOR_ETH_ADDRESS",
      "outputs": [
        {
          "internalType": "address",
          "name": "",
          "type": "address"
        }
      ],
      "stateMutability": "view",
      "type": "function"
    },
    {
      "inputs": [],
      "name": "DATACAP_RECEIVER_HOOK_METHOD_NUM",
      "outputs": [
        {
          "internalType": "uint64",
          "name": "",
          "type": "uint64"
        }
      ],
      "stateMutability": "view",
      "type": "function"
    },
    {
      "inputs": [],
      "name": "MARKET_ACTOR_ETH_ADDRESS",
      "outputs": [
        {
          "internalType": "address",
          "name": "",
          "type": "address"
        }
      ],
      "stateMutability": "view",
      "type": "function"
    },
    {
      "inputs": [],
      "name": "MARKET_NOTIFY_DEAL_METHOD_NUM",
      "outputs": [
        {
          "internalType": "uint64",
          "name": "",
          "type": "uint64"
        }
      ],
      "stateMutability": "view",
      "type": "function"
    },
    {
      "inputs": [
        {
          "internalType": "uint256",
          "name": "value",
          "type": "uint256"
        }
      ],
      "name": "addBalance",
      "outputs": [],
      "stateMutability": "nonpayable",
      "type": "function"
    },
    {
      "inputs": [
        {
          "internalType": "bytes32",
          "name": "",
          "type": "bytes32"
        }
      ],
      "name": "dealRequestIdx",
      "outputs": [
        {
          "internalType": "uint256",
          "name": "idx",
          "type": "uint256"
        },
        {
          "internalType": "bool",
          "name": "valid",
          "type": "bool"
        }
      ],
      "stateMutability": "view",
      "type": "function"
    },
    {
      "inputs": [
        {
          "internalType": "uint256",
          "name": "",
          "type": "uint256"
        }
      ],
      "name": "dealRequests",
      "outputs": [
        {
          "internalType": "bytes",
          "name": "piece_cid",
          "type": "bytes"
        },
        {
          "internalType": "uint64",
          "name": "piece_size",
          "type": "uint64"
        },
        {
          "internalType": "bool",
          "name": "verified_deal",
          "type": "bool"
        },
        {
          "internalType": "string",
          "name": "label",
          "type": "string"
        },
        {
          "internalType": "int64",
          "name": "start_epoch",
          "type": "int64"
        },
        {
          "internalType": "int64",
          "name": "end_epoch",
          "type": "int64"
        },
        {
          "internalType": "uint256",
          "name": "storage_price_per_epoch",
          "type": "uint256"
        },
        {
          "internalType": "uint256",
          "name": "provider_collateral",
          "type": "uint256"
        },
        {
          "internalType": "uint256",
          "name": "client_collateral",
          "type": "uint256"
        },
        {
          "internalType": "uint64",
          "name": "extra_params_version",
          "type": "uint64"
        },
        {
          "components": [
            {
              "internalType": "string",
              "name": "location_ref",
              "type": "string"
            },
            {
              "internalType": "uint64",
              "name": "car_size",
              "type": "uint64"
            },
            {
              "internalType": "bool",
              "name": "skip_ipni_announce",
              "type": "bool"
            },
            {
              "internalType": "bool",
              "name": "remove_unsealed_copy",
              "type": "bool"
            }
          ],
          "internalType": "struct ExtraParamsV1",
          "name": "extra_params",
          "type": "tuple"
        }
      ],
      "stateMutability": "view",
      "type": "function"
    },
    {
      "inputs": [],
      "name": "dealsLength",
      "outputs": [
        {
          "internalType": "uint256",
          "name": "",
          "type": "uint256"
        }
      ],
      "stateMutability": "view",
      "type": "function"
    },
    {
      "inputs": [
        {
          "internalType": "uint256",
          "name": "index",
          "type": "uint256"
        }
      ],
      "name": "getDealByIndex",
      "outputs": [
        {
          "components": [
            {
              "internalType": "bytes",
              "name": "piece_cid",
              "type": "bytes"
            },
            {
              "internalType": "uint64",
              "name": "piece_size",
              "type": "uint64"
            },
            {
              "internalType": "bool",
              "name": "verified_deal",
              "type": "bool"
            },
            {
              "internalType": "string",
              "name": "label",
              "type": "string"
            },
            {
              "internalType": "int64",
              "name": "start_epoch",
              "type": "int64"
            },
            {
              "internalType": "int64",
              "name": "end_epoch",
              "type": "int64"
            },
            {
              "internalType": "uint256",
              "name": "storage_price_per_epoch",
              "type": "uint256"
            },
            {
              "internalType": "uint256",
              "name": "provider_collateral",
              "type": "uint256"
            },
            {
              "internalType": "uint256",
              "name": "client_collateral",
              "type": "uint256"
            },
            {
              "internalType": "uint64",
              "name": "extra_params_version",
              "type": "uint64"
            },
            {
              "components": [
                {
                  "internalType": "string",
                  "name": "location_ref",
                  "type": "string"
                },
                {
                  "internalType": "uint64",
                  "name": "car_size",
                  "type": "uint64"
                },
                {
                  "internalType": "bool",
                  "name": "skip_ipni_announce",
                  "type": "bool"
                },
                {
                  "internalType": "bool",
                  "name": "remove_unsealed_copy",
                  "type": "bool"
                }
              ],
              "internalType": "struct ExtraParamsV1",
              "name": "extra_params",
              "type": "tuple"
            }
          ],
          "internalType": "struct DealRequest",
          "name": "",
          "type": "tuple"
        }
      ],
      "stateMutability": "view",
      "type": "function"
    },
    {
      "inputs": [
        {
          "internalType": "bytes32",
          "name": "proposalId",
          "type": "bytes32"
        }
      ],
      "name": "getDealProposal",
      "outputs": [
        {
          "internalType": "bytes",
          "name": "",
          "type": "bytes"
        }
      ],
      "stateMutability": "view",
      "type": "function"
    },
    {
      "inputs": [
        {
          "internalType": "bytes32",
          "name": "proposalId",
          "type": "bytes32"
        }
      ],
      "name": "getExtraParams",
      "outputs": [
        {
          "internalType": "bytes",
          "name": "extra_params",
          "type": "bytes"
        }
      ],
      "stateMutability": "view",
      "type": "function"
    },
    {
      "inputs": [
        {
          "internalType": "bytes",
          "name": "cid",
          "type": "bytes"
        }
      ],
      "name": "getProposalIdSet",
      "outputs": [
        {
          "components": [
            {
              "internalType": "bytes32",
              "name": "requestId",
              "type": "bytes32"
            },
            {
              "internalType": "bool",
              "name": "valid",
              "type": "bool"
            }
          ],
          "internalType": "struct RequestId",
          "name": "",
          "type": "tuple"
        }
      ],
      "stateMutability": "view",
      "type": "function"
    },
    {
      "inputs": [
        {
          "internalType": "bytes",
          "name": "cid",
          "type": "bytes"
        }
      ],
      "name": "getProviderSet",
      "outputs": [
        {
          "components": [
            {
              "internalType": "bytes",
              "name": "provider",
              "type": "bytes"
            },
            {
              "internalType": "bool",
              "name": "valid",
              "type": "bool"
            }
          ],
          "internalType": "struct ProviderSet",
          "name": "",
          "type": "tuple"
        }
      ],
      "stateMutability": "view",
      "type": "function"
    },
    {
      "inputs": [
        {
          "internalType": "uint64",
          "name": "method",
          "type": "uint64"
        },
        {
          "internalType": "uint64",
          "name": "",
          "type": "uint64"
        },
        {
          "internalType": "bytes",
          "name": "params",
          "type": "bytes"
        }
      ],
      "name": "handle_filecoin_method",
      "outputs": [
        {
          "internalType": "uint32",
          "name": "",
          "type": "uint32"
        },
        {
          "internalType": "uint64",
          "name": "",
          "type": "uint64"
        },
        {
          "internalType": "bytes",
          "name": "",
          "type": "bytes"
        }
      ],
      "stateMutability": "nonpayable",
      "type": "function"
    },
    {
      "inputs": [
        {
          "components": [
            {
              "internalType": "bytes",
              "name": "piece_cid",
              "type": "bytes"
            },
            {
              "internalType": "uint64",
              "name": "piece_size",
              "type": "uint64"
            },
            {
              "internalType": "bool",
              "name": "verified_deal",
              "type": "bool"
            },
            {
              "internalType": "string",
              "name": "label",
              "type": "string"
            },
            {
              "internalType": "int64",
              "name": "start_epoch",
              "type": "int64"
            },
            {
              "internalType": "int64",
              "name": "end_epoch",
              "type": "int64"
            },
            {
              "internalType": "uint256",
              "name": "storage_price_per_epoch",
              "type": "uint256"
            },
            {
              "internalType": "uint256",
              "name": "provider_collateral",
              "type": "uint256"
            },
            {
              "internalType": "uint256",
              "name": "client_collateral",
              "type": "uint256"
            },
            {
              "internalType": "uint64",
              "name": "extra_params_version",
              "type": "uint64"
            },
            {
              "components": [
                {
                  "internalType": "string",
                  "name": "location_ref",
                  "type": "string"
                },
                {
                  "internalType": "uint64",
                  "name": "car_size",
                  "type": "uint64"
                },
                {
                  "internalType": "bool",
                  "name": "skip_ipni_announce",
                  "type": "bool"
                },
                {
                  "internalType": "bool",
                  "name": "remove_unsealed_copy",
                  "type": "bool"
                }
              ],
              "internalType": "struct ExtraParamsV1",
              "name": "extra_params",
              "type": "tuple"
            }
          ],
          "internalType": "struct DealRequest",
          "name": "deal",
          "type": "tuple"
        }
      ],
      "name": "makeDealProposal",
      "outputs": [
        {
          "internalType": "bytes32",
          "name": "",
          "type": "bytes32"
        }
      ],
      "stateMutability": "nonpayable",
      "type": "function"
    },
    {
      "inputs": [],
      "name": "owner",
      "outputs": [
        {
          "internalType": "address",
          "name": "",
          "type": "address"
        }
      ],
      "stateMutability": "view",
      "type": "function"
    },
    {
      "inputs": [
        {
          "internalType": "bytes",
          "name": "",
          "type": "bytes"
        }
      ],
      "name": "pieceDeals",
      "outputs": [
        {
          "internalType": "uint64",
          "name": "",
          "type": "uint64"
        }
      ],
      "stateMutability": "view",
      "type": "function"
    },
    {
      "inputs": [
        {
          "internalType": "bytes",
          "name": "",
          "type": "bytes"
        }
      ],
      "name": "pieceProviders",
      "outputs": [
        {
          "internalType": "bytes",
          "name": "provider",
          "type": "bytes"
        },
        {
          "internalType": "bool",
          "name": "valid",
          "type": "bool"
        }
      ],
      "stateMutability": "view",
      "type": "function"
    },
    {
      "inputs": [
        {
          "internalType": "bytes",
          "name": "",
          "type": "bytes"
        }
      ],
      "name": "pieceRequests",
      "outputs": [
        {
          "internalType": "bytes32",
          "name": "requestId",
          "type": "bytes32"
        },
        {
          "internalType": "bool",
          "name": "valid",
          "type": "bool"
        }
      ],
      "stateMutability": "view",
      "type": "function"
    },
    {
      "inputs": [
        {
          "internalType": "bytes",
          "name": "",
          "type": "bytes"
        }
      ],
      "name": "pieceStatus",
      "outputs": [
        {
          "internalType": "enum DaoDealClient.Status",
          "name": "",
          "type": "uint8"
        }
      ],
      "stateMutability": "view",
      "type": "function"
    },
    {
      "inputs": [],
      "name": "renounceOwnership",
      "outputs": [],
      "stateMutability": "nonpayable",
      "type": "function"
    },
    {
      "inputs": [
        {
          "internalType": "address",
          "name": "newOwner",
          "type": "address"
        }
      ],
      "name": "transferOwnership",
      "outputs": [],
      "stateMutability": "nonpayable",
      "type": "function"
    },
    {
      "inputs": [
        {
          "internalType": "bytes",
          "name": "pieceCid",
          "type": "bytes"
        }
      ],
      "name": "updateActivationStatus",
      "outputs": [],
      "stateMutability": "nonpayable",
      "type": "function"
    },
    {
      "inputs": [
        {
          "internalType": "address",
          "name": "client",
          "type": "address"
        },
        {
          "internalType": "uint256",
          "name": "value",
          "type": "uint256"
        }
      ],
      "name": "withdrawBalance",
      "outputs": [
        {
          "internalType": "uint256",
          "name": "",
          "type": "uint256"
        }
      ],
      "stateMutability": "nonpayable",
      "type": "function"
    }
  ],
  "transactionHash": "0x3284df68ca2c0392bd0997e7b2ee3e6c6c09ace8071f3a7e0cc837973efc32c6",
  "args": [],
  "numDeployments": 1,
  "solcInputHash": "1cb22d6a172d273a45a440b83747abc6",
  "bytecode": "0x60806040523480156200001157600080fd5b506200001d3362000023565b62000073565b600080546001600160a01b038381166001600160a01b0319831681178455604051919092169283917f8be0079c531659141344cd1fd0a4f28419497f9722a3daafe3b4186f6b6457e09190a35050565b615aed80620000836000396000f3fe608060405234801561001057600080fd5b50600436106101a25760003560e01c8063868e10c4116100ee578063be965ce711610097578063f2fde38b11610071578063f2fde38b14610442578063f44a890314610455578063f4b2e4d814610475578063f82704f01461048857600080fd5b8063be965ce714610401578063d91921ed1461041c578063dd27fe901461042f57600080fd5b8063a6d1b7b8116100c8578063a6d1b7b814610389578063b34ba252146103cc578063bad79de9146103d757600080fd5b8063868e10c4146103365780638da5cb5b1461035857806396925ae61461036957600080fd5b80634634aed511610150578063662637351161012a57806366263735146102f9578063715018a61461030e57806378133bb21461031657600080fd5b80634634aed51461028f5780634e8a3ca4146102af5780636067f454146102ee57600080fd5b80631adf7eb1116101815780631adf7eb114610224578063297ab4861461025f57806329aa3d2a1461026757600080fd5b8062706790146101a75780630a0e0c91146101c85780630cf20cc914610204575b600080fd5b6101b2639d8b067881565b6040516101bf9190613db3565b60405180910390f35b6101b26101d6366004613eb9565b600581805160208101820180518482526020830160208501209152546001600160401b031693508492505050565b610217610212366004613f34565b6104a9565b6040516101bf9190613f77565b610251610232366004613f85565b6001602052806000526040600020805460019091015490915060ff1682565b6040516101bf929190613fae565b600254610217565b61028273ff0000000000000000000000000000000000000581565b6040516101bf9190613fd2565b6102a261029d366004613f85565b61052a565b6040516101bf919061403c565b6102516102bd366004613eb9565b600381805160208101820180518482526020830160208501209152805460019091015490945060ff16925084915050565b6101b263f98c996681565b61030c610307366004613eb9565b61054e565b005b61030c61063f565b610329610324366004614097565b610653565b6040516101bf919061410a565b610349610344366004614135565b610743565b6040516101bf939291906141ab565b6000546001600160a01b0316610282565b61037c610377366004613f85565b6107ff565b6040516101bf919061431e565b6103bf610397366004613eb9565b6006818051602081018201805184825260208301602085012091525460ff1693508492505050565b6040516101bf9190614373565b6101b263de180de381565b6103ea6103e5366004613f85565b610abf565b6040516101bf9b9a99989796959493929190614381565b61028273ff0000000000000000000000000000000000000781565b61030c61042a366004613f85565b610d38565b61021761043d36600461444d565b610d55565b61030c610450366004614487565b610fa5565b610468610463366004614097565b610fdc565b6040516101bf91906144cb565b6102a2610483366004613f85565b61103b565b61049b610496366004613eb9565b611123565b6040516101bf9291906144d9565b60006104b36111de565b600060405180604001604052806104c986611208565b81526020016104d785611251565b9052905060006104e68261129d565b90506000806104f4836112e7565b915091508061051e5760405162461bcd60e51b81526004016105159061457c565b60405180910390fd5b50925050505b92915050565b606060006105378361137e565b905061054781610140015161168e565b9392505050565b600060058260405161056091906145b4565b9081526020016040518091039020546001600160401b0316116105955760405162461bcd60e51b81526004016105159061461d565b60006105c76005836040516105aa91906145b4565b9081526020016040518091039020546001600160401b03166116eb565b90506000816020015160070b131561061c5760046006836040516105eb91906145b4565b9081526020016040518091039020805460ff191660018360048111156106135761061361432f565b02179055505050565b6000815160070b131561063b5760036006836040516105eb91906145b4565b5050565b6106476111de565b610651600061173e565b565b61066e60405160408082019052606081526000602082015290565b60048383604051610680929190614640565b90815260200160405180910390206040518060400160405290816000820180546106a990614663565b80601f01602080910402602001604051908101604052809291908181526020018280546106d590614663565b80156107225780601f106106f757610100808354040283529160200191610722565b820191906000526020600020905b81548152906001019060200180831161070557829003601f168201915b50505091835250506001919091015460ff1615156020909101529392505050565b60008060608082639d8b0677196001600160401b0389160161079657610768866117a8565b60006107746001611993565b90506107818160016119b3565b61078a816119ca565b925060519150506107ef565b63f98c9965196001600160401b038916016107b9576107b4866119f7565b6107ef565b63de180de2196001600160401b038916016107d7576107b486611bbb565b60405162461bcd60e51b8152600401610515906146e3565b6000989097509095509350505050565b610807613bd6565b6002828154811061081a5761081a6146f3565b90600052602060002090600a02016040518061016001604052908160008201805461084490614663565b80601f016020809104026020016040519081016040528092919081815260200182805461087090614663565b80156108bd5780601f10610892576101008083540402835291602001916108bd565b820191906000526020600020905b8154815290600101906020018083116108a057829003601f168201915b505050918352505060018201546001600160401b0381166020830152600160401b900460ff16151560408201526002820180546060909201916108ff90614663565b80601f016020809104026020016040519081016040528092919081815260200182805461092b90614663565b80156109785780601f1061094d57610100808354040283529160200191610978565b820191906000526020600020905b81548152906001019060200180831161095b57829003601f168201915b50505091835250506003820154600781810b6020840152600160401b909104810b6040808401919091526004840154606084015260058401546080840152600684015460a0840152908301546001600160401b031660c083015260e0909101906008830190518060800160405290816000820180546109f690614663565b80601f0160208091040260200160405190810160405280929190818152602001828054610a2290614663565b8015610a6f5780601f10610a4457610100808354040283529160200191610a6f565b820191906000526020600020905b815481529060010190602001808311610a5257829003601f168201915b5050509183525050600191909101546001600160401b038116602083015260ff600160401b8204811615156040840152690100000000000000000090910416151560609091015290525092915050565b60028181548110610acf57600080fd5b906000526020600020600a9091020180549091508190610aee90614663565b80601f0160208091040260200160405190810160405280929190818152602001828054610b1a90614663565b8015610b675780601f10610b3c57610100808354040283529160200191610b67565b820191906000526020600020905b815481529060010190602001808311610b4a57829003601f168201915b50505050600183015460028401805493946001600160401b03831694600160401b90930460ff16935091610b9a90614663565b80601f0160208091040260200160405190810160405280929190818152602001828054610bc690614663565b8015610c135780601f10610be857610100808354040283529160200191610c13565b820191906000526020600020905b815481529060010190602001808311610bf657829003601f168201915b505050506003830154600484015460058501546006860154600780880154969785820b97600160401b90960490910b95509293919290916001600160401b03169060088101604051806080016040529081600082018054610c7390614663565b80601f0160208091040260200160405190810160405280929190818152602001828054610c9f90614663565b8015610cec5780601f10610cc157610100808354040283529160200191610cec565b820191906000526020600020905b815481529060010190602001808311610ccf57829003601f168201915b5050509183525050600191909101546001600160401b038116602083015260ff600160401b8204811615156040840152690100000000000000000090910416151560609091015290508b565b610d406111de565b610d52610d4c30611208565b82611c26565b50565b6000610d5f6111de565b60026006610d6d8480614709565b604051610d7b929190614640565b90815260200160405180910390205460ff166004811115610d9e57610d9e61432f565b1480610de6575060036006610db38480614709565b604051610dc1929190614640565b90815260200160405180910390205460ff166004811115610de457610de461432f565b145b15610e035760405162461bcd60e51b8152600401610515906147c1565b600280546001810182556000918252908390829060209020600a90910201610e2b8282614cc4565b50506000423383604051602001610e4493929190614cf6565b6040516020818303038152906040528051906020012090506040516040808201815283825260016020808401829052600085815291905220815181556020820151600191909101805460ff19169115159190911790555060405160408082019052818152600160208201526003610ebb8680614709565b604051610ec9929190614640565b90815260200160405180910390208151815560208201516001918201805460ff191691151591909117905590506006610f028680614709565b604051610f10929190614640565b9081526020016040518091039020805460ff19166001836004811115610f3857610f3861432f565b0217905550610f4d6060850160408601614d38565b1515817ffd6419d07e4c269e58d0c63969756c2124155b4a8d6dd08b8cd46e3a9acbf625610f816040880160208901614d59565b8760c00135604051610f94929190614d7a565b60405180910390a39150505b919050565b610fad6111de565b6001600160a01b038116610fd35760405162461bcd60e51b815260040161051590614def565b610d528161173e565b610ff6604051604080820190526000808252602082015290565b60038383604051611008929190614640565b9081526020016040518091039020604051604081810190528154815260019091015460ff16151560208201529392505050565b606060006110488361137e565b9050611052613c70565b604051602081016040528083519052815260208201516001600160401b0316602082015260408201511515604082015261108b30611208565b606082015261109a6000611c72565b6080820152604051806040016040528083606001518152600160209091015260a0820152608082015160070b60c082015260a082015160070b60e08201526110e560c0830151611251565b6101008201526110f860e0830151611251565b61012082015261110c610100830151611251565b61014082015261111b81611cca565b949350505050565b600481805160208101820180518482526020830160208501209152805490945084935061115292509050614663565b80601f016020809104026020016040519081016040528092919081815260200182805461117e90614663565b80156111cb5780601f106111a0576101008083540402835291602001916111cb565b820191906000526020600020905b8154815290600101906020018083116111ae57829003601f168201915b5050506001909301549192505060ff1682565b6000546001600160a01b031633146106515760405162461bcd60e51b815260040161051590614e34565b61121c604051602081016040526060815290565b6040518060200160405280836040516020016112389190614e44565b6040516020818303038152906040528152509050919050565b61126c60405160408082019052606081526000602082015290565b6000611279836000611ee7565b90506040516040808201905280825181526020018260200151151590529392505050565b6112b860405160408082019052606081526000602082015290565b60006112c383611f38565b905060006112dc60056387ed0a64605185600080611fcf565b905061111b816120de565b600080826020015115611326576040517f83041cea00000000000000000000000000000000000000000000000000000000815260040160405180910390fd5b60006113356000196000611ee7565b9050600061134885518660200151612172565b905061135481836121a4565b1561136757506000946001945092505050565b805161137290614e89565b95600095509350505050565b611386613bd6565b6000828152600160205260408120604051604080820190528154815260019091015460ff16151560208201908152909150516113d45760405162461bcd60e51b815260040161051590614f00565b60028151815481106113e8576113e86146f3565b90600052602060002090600a02016040518061016001604052908160008201805461141290614663565b80601f016020809104026020016040519081016040528092919081815260200182805461143e90614663565b801561148b5780601f106114605761010080835404028352916020019161148b565b820191906000526020600020905b81548152906001019060200180831161146e57829003601f168201915b505050918352505060018201546001600160401b0381166020830152600160401b900460ff16151560408201526002820180546060909201916114cd90614663565b80601f01602080910402602001604051908101604052809291908181526020018280546114f990614663565b80156115465780601f1061151b57610100808354040283529160200191611546565b820191906000526020600020905b81548152906001019060200180831161152957829003601f168201915b50505091835250506003820154600781810b6020840152600160401b909104810b6040808401919091526004840154606084015260058401546080840152600684015460a0840152908301546001600160401b031660c083015260e0909101906008830190518060800160405290816000820180546115c490614663565b80601f01602080910402602001604051908101604052809291908181526020018280546115f090614663565b801561163d5780601f106116125761010080835404028352916020019161163d565b820191906000526020600020905b81548152906001019060200180831161162057829003601f168201915b5050509183525050600191909101546001600160401b038116602083015260ff600160401b820481161515604084015269010000000000000000009091041615156060909101529052509392505050565b6060600061169c6040611993565b90506116a98160046121ce565b6116b5835182906121da565b6116c4836020015182906121f8565b6116d3836040015182906119b3565b6116e2836060015182906119b3565b610547816119ca565b611705604051604080820190526000808252602082015290565b6000611719836001600160401b0316612204565b905060006117336005639904f2ff60518560006001611fcf565b905061111b8161223c565b600080546001600160a01b038381167fffffffffffffffffffffffff0000000000000000000000000000000000000000831681179093551690817f8be0079c531659141344cd1fd0a4f28419497f9722a3daafe3b4186f6b6457e060405160405180910390a35050565b3373ff00000000000000000000000000000000000005146117db5760405162461bcd60e51b815260040161051590614f6a565b60006117e6826122a6565b905060006117f78260200151612308565b90506000815151905060038160405161181091906145b4565b90815260200160405180910390206001015460ff166118415760405162461bcd60e51b815260040161051590614fd4565b60048160405161185191906145b4565b90815260200160405180910390206001015460ff16156118835760405162461bcd60e51b81526004016105159061503e565b60006118ac60038360405161189891906145b4565b90815260200160405180910390205461137e565b90508060400151151583604001511515146118d95760405162461bcd60e51b815260040161051590615082565b6000806118ea8561010001516112e7565b91509150801561190c5760405162461bcd60e51b815260040161051590615112565b60008061191d8761014001516112e7565b91509150801561193f5760405162461bcd60e51b815260040161051590615112565b8460c001518411156119635760405162461bcd60e51b81526004016105159061517c565b8461010001518211156119885760405162461bcd60e51b8152600401610515906151e6565b505050505050505050565b61199b613d6f565b6119a6815183612463565b5060006020820152919050565b61063b82826119c35760146124e0565b60156124e0565b60608160200151156119ee5760405162461bcd60e51b81526004016105159061522a565b81515192915050565b3373ff0000000000000000000000000000000000000514611a2a5760405162461bcd60e51b815260040161051590614f6a565b6000611a35826124ef565b90506000611a438251612308565b90506003815151604051611a5791906145b4565b90815260200160405180910390206001015460ff16611a885760405162461bcd60e51b815260040161051590614fd4565b6004815151604051611a9a91906145b4565b90815260200160405180910390206001015460ff1615611acc5760405162461bcd60e51b81526004016105159061503e565b6040518060400160405280826080015151815260016020909101526004825151604051611af991906145b4565b908152602001604051809103902081518190611b15908261523a565b506020820151600191909101805460ff19169115159190911790555060208201516005825151604051611b4891906145b4565b9081526020016040518091039020805467ffffffffffffffff19166001600160401b039290921691909117905560026006825151604051611b8991906145b4565b9081526020016040518091039020805460ff19166001836004811115611bb157611bb161432f565b0217905550505050565b3373ff0000000000000000000000000000000000000714611bee5760405162461bcd60e51b815260040161051590615371565b7f10aa319ed8cad9bceb033c0c2788c4ae17469ac844e4c6e2c2e20e74ca8a7be8604051611c1b906153b5565b60405180910390a150565b6000611c318361255b565b90506000611c4a6005633105f1a6605185876000611fcf565b9050805115611c6c57604051630e74990760e01b815260040160405180910390fd5b50505050565b611c86604051602081016040526060815290565b6000611c9183612584565b905060405160208101604052808251604051602001611cb091906153d2565b604051602081830303815290604052815250915050919050565b6060600080611cdd8461010001516125e0565b90506000611cef8561012001516125e0565b90506000611d018661014001516125e0565b9050611d0d600b6126fe565b611d1790856153ff565b9350611d2486515161274c565b611d2e90856153ff565b9350611d4686602001516001600160401b03166126fe565b611d5090856153ff565b9350611d5a612764565b611d6490856153ff565b9350611d74866060015151612775565b611d7e90856153ff565b9350611d8e866080015151612775565b611d9890856153ff565b9350611da88660a0015151612775565b611db290856153ff565b9350611dc18660c00151612783565b611dcb90856153ff565b9350611dda8660e00151612783565b611de490856153ff565b9350611def83612775565b611df990856153ff565b9350611e0482612775565b611e0e90856153ff565b9350611e1981612775565b611e2390856153ff565b93506000611e3085611993565b9050611e3d81600b6121ce565b611e4a87515182906127c6565b611e59876020015182906121f8565b611e68876040015182906119b3565b611e788760600151518290612814565b611e888760800151518290612814565b611e978760a001518290612821565b611ea68760c001518290612842565b611eb58760e001518290612842565b611ebf8185612814565b611ec98184612814565b611ed38183612814565b611edc816119ca565b979650505050505050565b611f0d604051806060016040528060608152602001600015158152602001600081525090565b61054783604051602001611f219190615412565b60405160208183030381529060405283600061284c565b6060600080611f4a84602001516125e0565b9050611f5660026126fe565b611f6090836153ff565b9150611f6d845151612775565b611f7790836153ff565b9150611f8281612775565b611f8c90836153ff565b91506000611f9983611993565b9050611fa68160026121ce565b611fb38551518290612814565b611fbd8183612814565b611fc6816119ca565b95945050505050565b6060611fef73fe0000000000000000000000000000000000000584612921565b60008073fe00000000000000000000000000000000000005888686612015576000612018565b60015b8a8a8e60405160200161203096959493929190615430565b60405160208183030381529060405260405161204c91906145b4565b600060405180830381855af49150503d8060008114612087576040513d603f01601f191681016040523d815291503d6000602084013e61208c565b606091505b5091509150816120c8576040517f8a7db5bf00000000000000000000000000000000000000000000000000000000815260040160405180910390fd5b6120d18161299b565b9998505050505050505050565b6120f960405160408082019052606081526000602082015290565b606060008084511115612128576121108482612aa4565b90925090506000825111156121285761111b82612c17565b60405160408082019052806000604051818152601f19601f830116810160200160405290801561215f576020820181803683370190505b5081526000602090910152949350505050565b612198604051806060016040528060608152602001600015158152602001600081525090565b6105478383600061284c565b6000806121b384846001612d7d565b9050806001146121c457600061111b565b6001949350505050565b61063b82600483612ebd565b6121e78260038351612ec4565b6121f381835190612fe1565b505050565b61063b82600083612ec4565b6060600061221a836001600160401b03166126fe565b9050600061222782611993565b905061223381856121f8565b61111b816119ca565b612256604051604080820190526000808252602082015290565b6000806122638482613008565b925090506002811461227757612277615486565b6122818483613054565b60079190910b845291506122958483613054565b5060070b6020840152509092915050565b6122c0604051604080820190526060808252602082015290565b6000806122cd8482613008565b92509050600281146122e1576122e1615486565b6122eb8483612aa4565b90845291506122fa8483612aa4565b506020840152509092915050565b612310613c70565b600080606061231f8583613008565b93509150600b821461233357612333615486565b61233d8584612aa4565b9350905060405160208101604052818152845261235a858461306e565b6001600160401b039091166020860152925061237685846130af565b9015156040860152925061238a8584612aa4565b935090506123978161311a565b60608501526123a68584612aa4565b935090506123b38161311a565b60808501526123c2858461317e565b60a086019190915292506123d68584613054565b60079190910b60c086015292506123ed8584613054565b60079190910b60e0860152925060606124068685612aa4565b9450905061241381612c17565b61010086015260606124258786612aa4565b9550905061243281612c17565b61012087015260606124448887612aa4565b9650905061245181612c17565b61014088015250949695505050505050565b61247e60405160408082019052606081526000602082015290565b6124896020836154b2565b156124b1576124996020836154b2565b6124a49060206154c6565b6124ae90836153ff565b91505b6020830182905260405180845260008152828101602001818110156124d557600080fd5b604052509192915050565b6121f360e082178351906132d8565b61250a60405160408082019052606081526000602082015290565b6000806125178482613008565b925090506002811461252b5761252b615486565b6125358483612aa4565b9084529150612544848361306e565b506001600160401b03166020840152509092915050565b606060006125698351612775565b9050600061257682611993565b905061223384518290612814565b61259f60405160408082019052606081526000602082015290565b6701ffffffffffffff600783901c1691607f1660008390036125cc576125c582826132d8565b5050919050565b6125d982608083176132d8565b505061259f565b606060008251516125f29060016153ff565b6001600160401b0381111561260957612609613dc1565b604051818152601f19601f8301168101602001604052908015612633576020820181803683370190505b5090508260200151151560011461264b576000612651565b600160f81b5b81600081518110612664576126646146f3565b60200101906001600160f81b031916908160001a905350600160005b8451518110156126f5578451818151811061269d5761269d6146f3565b60200101516001600160f81b0319168383815181106126be576126be6146f3565b60200101906001600160f81b031916908160001a905350816126df816154d9565b92505080806126ed906154d9565b915050612680565b50909392505050565b60006017821161271057506001919050565b60ff821161272057506002919050565b61ffff821161273157506003919050565b63ffffffff821161274457506005919050565b506009919050565b6000815161275a60026126fe565b61052491906153ff565b600061277060016126fe565b905090565b6000815161275a83516126fe565b600081600781900b82136127a357610547816001600160401b03166126fe565b6105476127b2826000196154ec565b6001600160401b03166126fe565b50919050565b6127d360d88351906132d8565b506127e1602a8351906132d8565b5061063b816040516020016127f6919061552f565b6040516020818303038152906040528361281490919063ffffffff16565b6121e78260028351612ec4565b80602001516128365761063b81518390612814565b61063b815183906121da565b61063b828261334b565b612872604051806060016040528060608152602001600015158152602001600081525090565b602084018451600059601f831615600181146128a057601f84166020908103808601845283010192506128aa565b6020820192508382525b508282848660046101c2fa506020815101810160405280515b602081146128f1576000602083015114600181146128e157506128f1565b60208301925050601f19016128c3565b8152845250505060208101839052811561290b5781612915565b6129158151613379565b60408201529392505050565b47818110156129605780826040517f8f0f4206000000000000000000000000000000000000000000000000000000008152600401610515929190615544565b823f151580611c6c576040517f64d954b000000000000000000000000000000000000000000000000000000000815260040160405180910390fd5b6060600080806020850185518101906129b491906155c8565b919450925090506001600160401b0382166129ee578051156129e957604051630e74990760e01b815260040160405180910390fd5b612a6a565b6001600160401b03821660511480612a0f57506001600160401b0382166071145b15612a365780516000036129e957604051630e74990760e01b815260040160405180910390fd5b816040517ff1f6bced0000000000000000000000000000000000000000000000000000000081526004016105159190613db3565b821561111b57826040517fd4bb66710000000000000000000000000000000000000000000000000000000081526004016105159190613f77565b60606000806000612ab586866133b7565b96509092506001600160401b0316905060ff821660061480612ada575060ff82166002145b612af65760405162461bcd60e51b815260040161051590615682565b60051960ff831601612b2f57612b0c86866133b7565b96509092506001600160401b0316905060ff8216600214612b2f57612b2f615486565b6000612b3b82876153ff565b90506000826001600160401b03811115612b5757612b57613dc1565b604051818152601f19601f8301168101602001604052908015612b81576020820181803683370190505b5090506000875b83811015612bfa57898181518110612ba257612ba26146f3565b60200101516001600160f81b031916838381518110612bc357612bc36146f3565b60200101906001600160f81b031916908160001a90535081612be4816154d9565b9250508080612bf2906154d9565b915050612b88565b5081612c06858a6153ff565b9650965050505050505b9250929050565b612c3260405160408082019052606081526000602082015290565b8151600003612c6a57604051806040016040528060405160408082019052600181526000602080830182905291835291015292915050565b600060018351612c7a91906154c6565b6001600160401b03811115612c9157612c91613dc1565b604051818152601f19601f8301168101602001604052908015612cbb576020820181803683370190505b509050600083600081518110612cd357612cd36146f3565b60200101516001600160f81b031916600160f81b03612cf0575060015b60015b8451811015612d6257848181518110612d0e57612d0e6146f3565b60200101516001600160f81b03191683612d296001846154c6565b81518110612d3957612d396146f3565b60200101906001600160f81b031916908160001a90535080612d5a816154d9565b915050612cf3565b50604051604080820190529182521515602082015292915050565b600060018215612df65784602001518015612d99575083602001515b15612da75750600019612df6565b8460200151158015612dbf5750836020015115156001145b15612dce576001915050610547565b846020015115156001148015612de657508360200151155b15612df657600019915050610547565b836040015185604001511115612e0d579050610547565b846040015184604001511115612e3157612e2981600019615692565b915050610547565b600080808080895151905060208a510194506020895101935060005b81811015612eac5780860151935080850151925082841115612e785786975050505050505050610547565b83831115612e9a57612e8c87600019615692565b975050505050505050610547565b612ea56020826153ff565b9050612e4d565b5060009a9950505050505050505050565b6121f38383835b6017816001600160401b031611612eea57611c6c60e0600584901b1682178451906132d8565b60ff816001600160401b031611612f2b57612f126018611fe0600585901b16178451906132d8565b50611c6c6001600160401b038216600185519190613534565b61ffff816001600160401b031611612f6d57612f546019611fe0600585901b16178451906132d8565b50611c6c6001600160401b038216600285519190613534565b63ffffffff816001600160401b031611612fb157612f98601a611fe0600585901b16178451906132d8565b50611c6c6001600160401b038216600485519190613534565b612fc8601b611fe0600585901b16178451906132d8565b50611c6c6001600160401b038216600885519190613534565b612ffc60405160408082019052606081526000602082015290565b610547838384516135c3565b60008060008061301886866133b7565b96509092506001600160401b0316905060ff821660041461304b5760405162461bcd60e51b8152600401610515906156fe565b95939450505050565b60008080613062858561369d565b90969095509350505050565b60008060008061307e86866133b7565b96509092506001600160401b0316905060ff82161561304b5760405162461bcd60e51b815260040161051590615768565b6000806000806130bf86866133b7565b96509092506001600160401b0316905060ff82166007146130f25760405162461bcd60e51b8152600401610515906157ac565b60158114806131015750601481145b61310d5761310d615486565b6014141595939450505050565b61312e604051602081016040526060815290565b6000604051602081016040528381529050613148816136ec565b610524576040517fe6c4247b00000000000000000000000000000000000000000000000000000000815260040160405180910390fd5b61319960405160408082019052606081526000602082015290565b60008060006131a886866133b7565b96509092506001600160401b0316905060ff8216600214806131cd575060ff82166003145b6131e95760405162461bcd60e51b815260040161051590615816565b60006131f582876153ff565b90506000826001600160401b0381111561321157613211613dc1565b604051818152601f19601f830116810160200160405290801561323b576020820181803683370190505b5090506000875b838110156132b45789818151811061325c5761325c6146f3565b60200101516001600160f81b03191683838151811061327d5761327d6146f3565b60200101906001600160f81b031916908160001a9053508161329e816154d9565b92505080806132ac906154d9565b915050613242565b506040516040808201905282815260ff86166003146020820152612c06858a6153ff565b6132f360405160408082019052606081526000602082015290565b6000835151905060006133078260016153ff565b9050846020015182106133285761332885613323836002615826565b613864565b84516020838201018581538151831115613340578282525b509495945050505050565b60008160070b126133625761063b82600083612ec4565b61063b826001613374846000196154ec565b612ec4565b60006133848261387f565b1561339157506000919050565b6000602083015190506133a3816138c8565b915060086020845103028201915050919050565b6000806000806133c78686613ac5565b90506133d46001866153ff565b94506007600582901c16601f8216601c81106134025760405162461bcd60e51b815260040161051590615898565b60188160ff1610156134205790945060ff16925084915061352d9050565b8060ff1660180361347d5760006134378989613ac5565b90506134446001896153ff565b975060188160ff16101561346a5760405162461bcd60e51b8152600401610515906158dc565b9195505060ff16925084915061352d9050565b8060ff166019036134b75760006134948989613b13565b90506134a16002896153ff565b97509195505061ffff16925084915061352d9050565b8060ff16601a036134f35760006134ce8989613b54565b90506134db6004896153ff565b97509195505063ffffffff16925084915061352d9050565b8060ff16601b1461350657613506615486565b60006135128989613b95565b905061351f6008896153ff565b975091955090935085925050505b9250925092565b61354f60405160408082019052606081526000602082015290565b60008451519050600061356282856153ff565b9050856020015181111561357f5761357f86613323836002615826565b6000600161358f866101006159fa565b61359991906154c6565b9050865182810187831982511617815281518411156135b6578382525b5096979650505050505050565b6135de60405160408082019052606081526000602082015290565b82518211156135ec57600080fd5b6000845151905060006135ff84836153ff565b9050856020015181111561361c5761361c86613323836002615826565b60008087518051856020830101935080851115613637578482525b505050602086015b6020861061367757805182526136566020836153ff565b91506136636020826153ff565b90506136706020876154c6565b955061363f565b60001960208790036101000a018019825116818451161790925250959695505050505050565b6000806000806136ad86866133b7565b96509092506001600160401b0316905060ff8216600114806136d0575060ff8216155b61304b5760405162461bcd60e51b815260040161051590615a63565b60008151600081518110613702576137026146f3565b60200101516001600160f81b03191660000361372557600a825151111592915050565b8151600081518110613739576137396146f3565b60200101516001600160f81b031916600160f81b148061379a57508151600081518110613768576137686146f3565b60200101516001600160f81b0319167f0200000000000000000000000000000000000000000000000000000000000000145b156137ab5781515160151492915050565b81516000815181106137bf576137bf6146f3565b60200101516001600160f81b0319167f0300000000000000000000000000000000000000000000000000000000000000036138005781515160311492915050565b8151600081518110613814576138146146f3565b60200101516001600160f81b0319167f040000000000000000000000000000000000000000000000000000000000000003613856576040825151111592915050565b610100825151111592915050565b6000825190506138748383612463565b50611c6c8382612fe1565b60008060208301815b84518110156138bd578151925082156138a657506000949350505050565b6020918201916138b690826153ff565b9050613888565b506001949350505050565b6000811560018114613abc57700100000000000000000000000000000000600160401b640100000000620100006101006010600460026000198b019081041790810417908104179081041790810417908104179081041790810417600101926040517ff8f9cbfae6cc78fbefe7cdc3a1793dfcf4f0e8bbd8cec470b6a28a7a5a3e1efd81527ff5ecf1b3e9debc68e1d9cfabc5997135bfb7a7a3938b7b606b5b4b3f2f1f0ffe60208201527ff6e4ed9ff2d6b458eadcdf97bd91692de2d4da8fd2d0ac50c6ae9a827252361660408201527fc8c0b887b0a8a4489c948c7f847c6125746c645c544c444038302820181008ff60608201527ff7cae577eec2a03cf3bad76fb589591debb2dd67e0aa9834bea6925f6a4a2e0e60808201527fe39ed557db96902cd38ed14fad815115c786af479b7e8324736353433727170760a08201527fc976c13bb96e881cb166a933a55e490d9d56952b8d4e801485467d236242260660c08201527f753a6d1b65325d0c552a4d1345224105391a310b29122104190a11030902010060e082015261010081016040527e818283848586878898a8b8c8d8e8f929395969799a9b9d9e9faaeb6bedeeff600160f81b8082880204818160ff0385015104600160ff1b86116101000201965060001985018516613ab2576001870196505b50505050506127c0565b50600092915050565b6000613ad28260016153ff565b83511015613af25760405162461bcd60e51b815260040161051590615aa7565b828281518110613b0457613b046146f3565b602001015160f81c9392505050565b6000613b208260026153ff565b83511015613b405760405162461bcd60e51b815260040161051590615aa7565b60008260200184015160f01c949350505050565b6000613b618260046153ff565b83511015613b815760405162461bcd60e51b815260040161051590615aa7565b60008260200184015160e01c949350505050565b6000613ba28260086153ff565b83511015613bc25760405162461bcd60e51b815260040161051590615aa7565b60008260200184015160c01c949350505050565b6040518061016001604052806060815260200160006001600160401b0316815260200160001515815260200160608152602001600060070b8152602001600060070b815260200160008152602001600081526020016000815260200160006001600160401b03168152602001613c6b604051608081016040908152606080835260006020840181905291830182905282015290565b905290565b604051806101600160405280613c90604051602081016040526060815290565b815260200160006001600160401b03168152602001600015158152602001613cc2604051602081016040526060815290565b8152602001613cdb604051602081016040526060815290565b8152602001613cfb60405160408082019052606081526000602082015290565b8152602001600060070b8152602001600060070b8152602001613d2f60405160408082019052606081526000602082015290565b8152602001613d4f60405160408082019052606081526000602082015290565b8152602001613c6b60405160408082019052606081526000602082015290565b6040518060400160405280613d9560405160408082019052606081526000602082015290565b8152602001600081525090565b6001600160401b0381165b82525050565b602081016105248284613da2565b634e487b7160e01b600052604160045260246000fd5b601f19601f83011681018181106001600160401b0382111715613dfc57613dfc613dc1565b6040525050565b6000613e126000604051905090565b9050610fa08282613dd7565b60006001600160401b03821115613e3757613e37613dc1565b601f19601f83011660200192915050565b82818337506000910152565b6000613e67613e6284613e1e565b613e03565b905082815260208101848484011115613e8257613e82600080fd5b613e8d848285613e48565b509392505050565b600082601f830112613ea957613ea9600080fd5b813561111b848260208601613e54565b600060208284031215613ece57613ece600080fd5b81356001600160401b03811115613ee757613ee7600080fd5b61111b84828501613e95565b60006001600160a01b038216610524565b613f0d81613ef3565b8114610d5257600080fd5b803561052481613f04565b80613f0d565b803561052481613f23565b60008060408385031215613f4a57613f4a600080fd5b6000613f568585613f18565b9250506020613f6785828601613f29565b9150509250929050565b80613dad565b602081016105248284613f71565b600060208284031215613f9a57613f9a600080fd5b600061111b8484613f29565b801515613dad565b60408101613fbc8285613f71565b6105476020830184613fa6565b613dad81613ef3565b602081016105248284613fc9565b60005b83811015613ffb578082015183820152602001613fe3565b50506000910152565b6000614014826000815192915050565b80845260208401935061402b818560208601613fe0565b601f01601f19169290920192915050565b602080825281016105478184614004565b60008083601f84011261406257614062600080fd5b5081356001600160401b0381111561407c5761407c600080fd5b602083019150836001820283011115612c1057612c10600080fd5b600080602083850312156140ad576140ad600080fd5b82356001600160401b038111156140c6576140c6600080fd5b6140d28582860161404d565b92509250509250929050565b600060408301825184820385526140f58282614004565b9150506020830151613e8d6020860182613fa6565b6020808252810161054781846140de565b6001600160401b038116613f0d565b80356105248161411b565b60008060006060848603121561414d5761414d600080fd5b6000614159868661412a565b935050602061416a8682870161412a565b92505060408401356001600160401b0381111561418957614189600080fd5b61419586828701613e95565b9150509250925092565b63ffffffff8116613dad565b606081016141b9828661419f565b6141c66020830185613da2565b8181036040830152611fc68184614004565b613dad8160070b90565b600060808301825184820385526141f98282614004565b915050602083015161420e6020860182613da2565b5060408301516142216040860182613fa6565b506060830151613e8d6060860182613fa6565b600061016083018251848203855261424c8282614004565b91505060208301516142616020860182613da2565b5060408301516142746040860182613fa6565b506060830151848203606086015261428c8282614004565b91505060808301516142a160808601826141d8565b5060a08301516142b460a08601826141d8565b5060c08301516142c760c0860182613f71565b5060e08301516142da60e0860182613f71565b506101008301516142ef610100860182613f71565b50610120830151614304610120860182613da2565b50610140830151848203610140860152611fc682826141e2565b602080825281016105478184614234565b634e487b7160e01b600052602160045260246000fd5b60058110610d5257610d5261432f565b80610fa081614345565b600061052482614355565b613dad8161435f565b60208101610524828461436a565b6101608082528101614393818e614004565b90506143a2602083018d613da2565b6143af604083018c613fa6565b81810360608301526143c1818b614004565b90506143d0608083018a6141d8565b6143dd60a08301896141d8565b6143ea60c0830188613f71565b6143f760e0830187613f71565b614405610100830186613f71565b614413610120830185613da2565b81810361014083015261442681846141e2565b9d9c50505050505050505050505050565b600061016082840312156127c0576127c0600080fd5b60006020828403121561446257614462600080fd5b81356001600160401b0381111561447b5761447b600080fd5b61111b84828501614437565b60006020828403121561449c5761449c600080fd5b600061111b8484613f18565b6040820181516144b88482613f71565b506020820151611c6c6020850182613fa6565b6040810161052482846144a8565b604080825281016144ea8185614004565b90506105476020830184613fa6565b604881526000602082017f50726f626c656d7320636f6e76657274696e672077697468647261772062616c81527f616e636520696e746f2042696720496e742c206d617920636175736520616e2060208201527f6f766572666c6f77000000000000000000000000000000000000000000000000604082015291505b5060600190565b60208082528101610524816144f9565b600061459c826000815192915050565b6145aa818560208601613fe0565b9290920192915050565b6000610547828461458c565b602481526000602082017f6e6f206465616c207075626c697368656420666f72207468697320706965636581527f2063696400000000000000000000000000000000000000000000000000000000602082015291505b5060400190565b60208082528101610524816145c0565b600061463a838584613e48565b50500190565b600061111b82848661462d565b634e487b7160e01b600052602260045260246000fd5b60028104600182168061467757607f821691505b6020821081036127c0576127c061464d565b603281526000602082017f7468652066696c65636f696e206d6574686f642074686174207761732063616c81527f6c6564206973206e6f742068616e646c6564000000000000000000000000000060208201529150614616565b6020808252810161052481614689565b634e487b7160e01b600052603260045260246000fd5b6000808335601e193685900301811261472457614724600080fd5b8084019250823591506001600160401b0382111561474457614744600080fd5b60208301925060018202360383131561475f5761475f600080fd5b509250929050565b602981526000602082017f6465616c2077697468207468697320706965636543696420616c72656164792081527f7075626c6973686564000000000000000000000000000000000000000000000060208201529150614616565b6020808252810161052481614767565b60006105246147dd8381565b90565b6147e9836147d1565b81546008840282811b60001990911b908116901990911617825550505050565b60006121f38184846147e0565b8181101561063b57614829600082614809565b600101614816565b601f8211156121f35761484f81600081815281906020902092915050565b6020601f850104810160208510156148645750805b6148766020601f860104830182614816565b5050505050565b826001600160401b0381111561489557614895613dc1565b61489f8254614663565b6148aa828285614831565b6000601f8311600181146148de57600084156148c65750858201355b600019600886021c1981166002860217865550614944565b601f1984166148f886600081815281906020902092915050565b60005b8281101561491b57888501358255602094850194600190920191016148fb565b8683101561493757600019601f88166008021c19858a01351682555b6001600288020188555050505b50505050505050565b6121f383838361487d565b600081356105248161411b565b60006001600160401b03835b81169019929092169190911792915050565b60006001600160401b038216610524565b61499d82614983565b6149a8818354614965565b8255505050565b801515613f0d565b60008135610524816149af565b600068ff00000000000000006149718460401b90565b6000811515610524565b6149ed826149da565b6149a88183546149c4565b613f0d8160070b90565b60008135610524816149f8565b6000610524614a216147dd8460070b90565b60070b90565b61499d82614a0f565b60006fffffffffffffffff00000000000000006149718460401b90565b614a5682614a0f565b6149a8818354614a30565b6000813561052481613f23565b600060001983614971565b614a82826147d1565b6149a8818354614a6e565b60008235607e1936849003018112614aa757614aa7600080fd5b9190910192915050565b600069ff0000000000000000006149718460481b90565b614ad1826149da565b6149a8818354614ab1565b8082614ae88180614709565b614af381838661494d565b50505050600181016020830180614b0981614958565b9050614b158184614994565b505050600181016040830180614b2a816149b7565b9050614b3681846149e4565b505050600181016060830180614b4b816149b7565b90506148768184614ac8565b61063b8282614adc565b8082614b6d8180614709565b614b7881838661494d565b50505050600181016020830180614b8e81614958565b9050614b9a8184614994565b505050600181016040830180614baf816149b7565b9050614bbb81846149e4565b5050506002810160608301614bd08185614709565b614bdb81838661494d565b50505050600381016080830180614bf181614a02565b9050614bfd8184614a27565b5050506003810160a0830180614c1281614a02565b9050614c1e8184614a4d565b5050506004810160c0830180614c3381614a61565b9050614c3f8184614a79565b5050506005810160e0830180614c5481614a61565b9050614c608184614a79565b50505060068101610100830180614c7681614a61565b9050614c828184614a79565b50505060078101610120830180614c9881614958565b9050614ca48184614994565b505050600881016101408301614cba8185614a8d565b6148768184614b57565b61063b8282614b61565b60006105248260601b90565b600061052482614cce565b613dad614cf182613ef3565b614cda565b6000614d028286613f71565b602082019150614d128285614ce5565b601482019150614d228284613f71565b506020019392505050565b8035610524816149af565b600060208284031215614d4d57614d4d600080fd5b600061111b8484614d2d565b600060208284031215614d6e57614d6e600080fd5b600061111b848461412a565b60408101614d888285613da2565b6105476020830184613f71565b602681526000602082017f4f776e61626c653a206e6577206f776e657220697320746865207a65726f206181527f646472657373000000000000000000000000000000000000000000000000000060208201529150614616565b6020808252810161052481614d95565b60208082527f4f776e61626c653a2063616c6c6572206973206e6f7420746865206f776e6572910190815260005b5060200190565b6020808252810161052481614dff565b7f040a00000000000000000000000000000000000000000000000000000000000081526002016000614e768284614ce5565b50601401919050565b6000610524825190565b6000614e99826000815192915050565b60208301614ea681614e7f565b925060208210156125c557614ec2600019836020036008021b90565b9092169392505050565b601881526000602082017f70726f706f73616c4964206e6f7420617661696c61626c65000000000000000081529150614e2d565b6020808252810161052481614ecc565b602781526000602082017f6d73672e73656e646572206e6565647320746f206265206d61726b657420616381527f746f72206630350000000000000000000000000000000000000000000000000060208201529150614616565b6020808252810161052481614f10565b602a81526000602082017f706965636520636964206d757374206265206164646564206265666f7265206181527f7574686f72697a696e670000000000000000000000000000000000000000000060208201529150614616565b6020808252810161052481614f7a565b603b81526000602082017f6465616c206661696c656420706f6c69637920636865636b3a2070726f76696481527f657220616c726561647920636c61696d6564207468697320636964000000000060208201529150614616565b6020808252810161052481614fe4565b601c81526000602082017f76657269666965645f6465616c20706172616d206d69736d617463680000000081529150614e2d565b602080825281016105248161504e565b604181526000602082017f49737375657320636f6e76657274696e672075696e7432353620746f2042696781527f496e742c206d6179206e6f7420686176652061636375726174652076616c756560208201527f730000000000000000000000000000000000000000000000000000000000000060408201529150614575565b6020808252810161052481615092565b602981526000602082017f73746f726167652070726963652067726561746572207468616e20726571756581527f737420616d6f756e74000000000000000000000000000000000000000000000060208201529150614616565b6020808252810161052481615122565b602d81526000602082017f636c69656e7420636f6c6c61746572616c2067726561746572207468616e207281527f65717565737420616d6f756e740000000000000000000000000000000000000060208201529150614616565b602080825281016105248161518c565b600c81526000602082017f496e76616c69642043424f52000000000000000000000000000000000000000081529150614e2d565b60208082528101610524816151f6565b615248826000815192915050565b6001600160401b0381111561525f5761525f613dc1565b6152698254614663565b615274828285614831565b6020601f8311600181146152a95760008415615291578287015190505b600019600886021c198116600286021786555061530f565b601f1984166152c386600081815281906020902092915050565b60005b828110156152e657848901518255602094850194600190920191016152c6565b868310156153025784890151600019601f89166008021c191682555b6001600288020188555050505b505050505050565b602881526000602082017f6d73672e73656e646572206e6565647320746f2062652064617461636170206181527f63746f722066303700000000000000000000000000000000000000000000000060208201529150614616565b6020808252810161052481615317565b601181526000602082017f446174614361702052656365697665642100000000000000000000000000000081529150614e2d565b6020808252810161052481615381565b60008082525b5060010190565b60006153dd826153c5565b9150610547828461458c565b634e487b7160e01b600052601160045260246000fd5b80820180821115610524576105246153e9565b600061541e8284613f71565b50602001919050565b613dad81614983565b60c0810161543e8289613da2565b61544b6020830188613f71565b6154586040830187613da2565b6154656060830186613da2565b81810360808301526154778185614004565b9050611edc60a0830184615427565b634e487b7160e01b600052600160045260246000fd5b634e487b7160e01b600052601260045260246000fd5b6000826154c1576154c161549c565b500690565b81810381811115610524576105246153e9565b600060001982036153cb576153cb6153e9565b60006154f88260070b90565b91506155048360070b90565b925050818103677fffffffffffffff198112677fffffffffffffff82131715610524576105246153e9565b6000808252600182019150610547828461458c565b60408101614d888285613f71565b60008151905061052481613f23565b6000815190506105248161411b565b600061557e613e6284613e1e565b90508281526020810184848401111561559957615599600080fd5b613e8d848285613fe0565b600082601f8301126155b8576155b8600080fd5b815161111b848260208601615570565b6000806000606084860312156155e0576155e0600080fd5b60006155ec8686615552565b93505060206155fd86828701615561565b92505060408401516001600160401b0381111561561c5761561c600080fd5b614195868287016155a4565b602e81526000602082017f696e76616c6964206d616a20286578706563746564204d616a546167206f722081527f4d616a42797465537472696e672900000000000000000000000000000000000060208201529150614616565b6020808252810161052481615628565b8181028060008312600160ff1b851416156156af576156af6153e9565b82820584148315176156c3576156c36153e9565b5092915050565b601f81526000602082017f696e76616c6964206d616a20286578706563746564204d616a4172726179290081529150614e2d565b60208082528101610524816156ca565b602581526000602082017f696e76616c6964206d616a20286578706563746564204d616a556e7369676e6581527f64496e742900000000000000000000000000000000000000000000000000000060208201529150614616565b602080825281016105248161570e565b601f81526000602082017f696e76616c6964206d616a20286578706563746564204d616a4f74686572290081529150614e2d565b6020808252810161052481615778565b603581526000602082017f696e76616c6964206d616a20286578706563746564204d616a4279746553747281527f696e67206f72204d616a54657874537472696e6729000000000000000000000060208201529150614616565b60208082528101610524816157bc565b8181028082158382048514176156c3576156c36153e9565b602581526000602082017f63616e6e6f742068616e646c652068656164657273207769746820657874726181527f203e20323700000000000000000000000000000000000000000000000000000060208201529150614616565b602080825281016105248161583e565b600c81526000602082017f696e76616c69642063626f72000000000000000000000000000000000000000081529150614e2d565b60208082528101610524816158a8565b80825b600185111561592b5780860481111561590a5761590a6153e9565b600185161561591857908102905b80026159248560011c90565b94506158ef565b94509492505050565b60008261594357506001610547565b8161595057506000610547565b816001811461596657600281146159705761599d565b6001915050610547565b60ff841115615981576159816153e9565b8360020a915084821115615997576159976153e9565b50610547565b5060208310610133831016604e8410600b84101617156159d0575081810a838111156159cb576159cb6153e9565b610547565b6159dd84848460016158ec565b925090508184048111156159f3576159f36153e9565b0292915050565b60006105476000198484615934565b603581526000602082017f696e76616c6964206d616a20286578706563746564204d616a5369676e65644981527f6e74206f72204d616a556e7369676e6564496e7429000000000000000000000060208201529150614616565b6020808252810161052481615a09565b601481526000602082017f736c6963696e67206f7574206f662072616e676500000000000000000000000081529150614e2d565b6020808252810161052481615a7356fea26469706673582212209d00c7c7533c13442c9179557f432a6240f68c1bc5841d9b45ae60f04a66b0c264736f6c63430008110033",
  "devdoc": {
    "kind": "dev",
    "methods": {
      "owner()": {
        "details": "Returns the address of the current owner."
      },
      "renounceOwnership()": {
        "details": "Leaves the contract without owner. It will not be possible to call `onlyOwner` functions. Can only be called by the current owner. NOTE: Renouncing ownership will leave the contract without an owner, thereby disabling any functionality that is only available to the owner."
      },
      "transferOwnership(address)": {
        "details": "Transfers ownership of the contract to a new account (`newOwner`). Can only be called by the current owner."
      }
    },
    "version": 1
  },
  "userdoc": {
    "errors": {
      "ActorError(int256)": [
        {
          "notice": "the called actor returned an error as part of its expected behaviour"
        }
      ],
      "ActorNotFound()": [
        {
          "notice": "the actor is not found"
        }
      ],
      "FailToCallActor()": [
        {
          "notice": "an error happened trying to call the actor"
        }
      ],
      "InvalidCodec(uint64)": [
        {
          "notice": "the codec received is not valid"
        }
      ],
      "InvalidResponseLength()": [
        {
          "notice": "the response received is not correct. In some case no response is expected and we received one, or a response was indeed expected and we received none."
        }
      ],
      "NotEnoughBalance(uint256,uint256)": [
        {
          "notice": "the smart contract has no enough balance to transfer"
        }
      ]
    },
    "kind": "user",
    "methods": {},
    "version": 1
  },
  "storageLayout": {
    "storage": [
      {
        "astId": 817,
        "contract": "contracts/DaoDealClient.sol:DaoDealClient",
        "label": "_owner",
        "offset": 0,
        "slot": "0",
        "type": "t_address"
      },
      {
        "astId": 20731,
        "contract": "contracts/DaoDealClient.sol:DaoDealClient",
        "label": "dealRequestIdx",
        "offset": 0,
        "slot": "1",
        "type": "t_mapping(t_bytes32,t_struct(RequestIdx)20598_storage)"
      },
      {
        "astId": 20735,
        "contract": "contracts/DaoDealClient.sol:DaoDealClient",
        "label": "dealRequests",
        "offset": 0,
        "slot": "2",
        "type": "t_array(t_struct(DealRequest)20627_storage)dyn_storage"
      },
      {
        "astId": 20740,
        "contract": "contracts/DaoDealClient.sol:DaoDealClient",
        "label": "pieceRequests",
        "offset": 0,
        "slot": "3",
        "type": "t_mapping(t_bytes_memory_ptr,t_struct(RequestId)20593_storage)"
      },
      {
        "astId": 20745,
        "contract": "contracts/DaoDealClient.sol:DaoDealClient",
        "label": "pieceProviders",
        "offset": 0,
        "slot": "4",
        "type": "t_mapping(t_bytes_memory_ptr,t_struct(ProviderSet)20603_storage)"
      },
      {
        "astId": 20749,
        "contract": "contracts/DaoDealClient.sol:DaoDealClient",
        "label": "pieceDeals",
        "offset": 0,
        "slot": "5",
        "type": "t_mapping(t_bytes_memory_ptr,t_uint64)"
      },
      {
        "astId": 20754,
        "contract": "contracts/DaoDealClient.sol:DaoDealClient",
        "label": "pieceStatus",
        "offset": 0,
        "slot": "6",
        "type": "t_mapping(t_bytes_memory_ptr,t_enum(Status)20726)"
      }
    ],
    "types": {
      "t_address": {
        "encoding": "inplace",
        "label": "address",
        "numberOfBytes": "20"
      },
      "t_array(t_struct(DealRequest)20627_storage)dyn_storage": {
        "base": "t_struct(DealRequest)20627_storage",
        "encoding": "dynamic_array",
        "label": "struct DealRequest[]",
        "numberOfBytes": "32"
      },
      "t_bool": {
        "encoding": "inplace",
        "label": "bool",
        "numberOfBytes": "1"
      },
      "t_bytes32": {
        "encoding": "inplace",
        "label": "bytes32",
        "numberOfBytes": "32"
      },
      "t_bytes_memory_ptr": {
        "encoding": "bytes",
        "label": "bytes",
        "numberOfBytes": "32"
      },
      "t_bytes_storage": {
        "encoding": "bytes",
        "label": "bytes",
        "numberOfBytes": "32"
      },
      "t_enum(Status)20726": {
        "encoding": "inplace",
        "label": "enum DaoDealClient.Status",
        "numberOfBytes": "1"
      },
      "t_int64": {
        "encoding": "inplace",
        "label": "int64",
        "numberOfBytes": "8"
      },
      "t_mapping(t_bytes32,t_struct(RequestIdx)20598_storage)": {
        "encoding": "mapping",
        "key": "t_bytes32",
        "label": "mapping(bytes32 => struct RequestIdx)",
        "numberOfBytes": "32",
        "value": "t_struct(RequestIdx)20598_storage"
      },
      "t_mapping(t_bytes_memory_ptr,t_enum(Status)20726)": {
        "encoding": "mapping",
        "key": "t_bytes_memory_ptr",
        "label": "mapping(bytes => enum DaoDealClient.Status)",
        "numberOfBytes": "32",
        "value": "t_enum(Status)20726"
      },
      "t_mapping(t_bytes_memory_ptr,t_struct(ProviderSet)20603_storage)": {
        "encoding": "mapping",
        "key": "t_bytes_memory_ptr",
        "label": "mapping(bytes => struct ProviderSet)",
        "numberOfBytes": "32",
        "value": "t_struct(ProviderSet)20603_storage"
      },
      "t_mapping(t_bytes_memory_ptr,t_struct(RequestId)20593_storage)": {
        "encoding": "mapping",
        "key": "t_bytes_memory_ptr",
        "label": "mapping(bytes => struct RequestId)",
        "numberOfBytes": "32",
        "value": "t_struct(RequestId)20593_storage"
      },
      "t_mapping(t_bytes_memory_ptr,t_uint64)": {
        "encoding": "mapping",
        "key": "t_bytes_memory_ptr",
        "label": "mapping(bytes => uint64)",
        "numberOfBytes": "32",
        "value": "t_uint64"
      },
      "t_string_storage": {
        "encoding": "bytes",
        "label": "string",
        "numberOfBytes": "32"
      },
      "t_struct(DealRequest)20627_storage": {
        "encoding": "inplace",
        "label": "struct DealRequest",
        "members": [
          {
            "astId": 20605,
            "contract": "contracts/DaoDealClient.sol:DaoDealClient",
            "label": "piece_cid",
            "offset": 0,
            "slot": "0",
            "type": "t_bytes_storage"
          },
          {
            "astId": 20607,
            "contract": "contracts/DaoDealClient.sol:DaoDealClient",
            "label": "piece_size",
            "offset": 0,
            "slot": "1",
            "type": "t_uint64"
          },
          {
            "astId": 20609,
            "contract": "contracts/DaoDealClient.sol:DaoDealClient",
            "label": "verified_deal",
            "offset": 8,
            "slot": "1",
            "type": "t_bool"
          },
          {
            "astId": 20611,
            "contract": "contracts/DaoDealClient.sol:DaoDealClient",
            "label": "label",
            "offset": 0,
            "slot": "2",
            "type": "t_string_storage"
          },
          {
            "astId": 20613,
            "contract": "contracts/DaoDealClient.sol:DaoDealClient",
            "label": "start_epoch",
            "offset": 0,
            "slot": "3",
            "type": "t_int64"
          },
          {
            "astId": 20615,
            "contract": "contracts/DaoDealClient.sol:DaoDealClient",
            "label": "end_epoch",
            "offset": 8,
            "slot": "3",
            "type": "t_int64"
          },
          {
            "astId": 20617,
            "contract": "contracts/DaoDealClient.sol:DaoDealClient",
            "label": "storage_price_per_epoch",
            "offset": 0,
            "slot": "4",
            "type": "t_uint256"
          },
          {
            "astId": 20619,
            "contract": "contracts/DaoDealClient.sol:DaoDealClient",
            "label": "provider_collateral",
            "offset": 0,
            "slot": "5",
            "type": "t_uint256"
          },
          {
            "astId": 20621,
            "contract": "contracts/DaoDealClient.sol:DaoDealClient",
            "label": "client_collateral",
            "offset": 0,
            "slot": "6",
            "type": "t_uint256"
          },
          {
            "astId": 20623,
            "contract": "contracts/DaoDealClient.sol:DaoDealClient",
            "label": "extra_params_version",
            "offset": 0,
            "slot": "7",
            "type": "t_uint64"
          },
          {
            "astId": 20626,
            "contract": "contracts/DaoDealClient.sol:DaoDealClient",
            "label": "extra_params",
            "offset": 0,
            "slot": "8",
            "type": "t_struct(ExtraParamsV1)20636_storage"
          }
        ],
        "numberOfBytes": "320"
      },
      "t_struct(ExtraParamsV1)20636_storage": {
        "encoding": "inplace",
        "label": "struct ExtraParamsV1",
        "members": [
          {
            "astId": 20629,
            "contract": "contracts/DaoDealClient.sol:DaoDealClient",
            "label": "location_ref",
            "offset": 0,
            "slot": "0",
            "type": "t_string_storage"
          },
          {
            "astId": 20631,
            "contract": "contracts/DaoDealClient.sol:DaoDealClient",
            "label": "car_size",
            "offset": 0,
            "slot": "1",
            "type": "t_uint64"
          },
          {
            "astId": 20633,
            "contract": "contracts/DaoDealClient.sol:DaoDealClient",
            "label": "skip_ipni_announce",
            "offset": 8,
            "slot": "1",
            "type": "t_bool"
          },
          {
            "astId": 20635,
            "contract": "contracts/DaoDealClient.sol:DaoDealClient",
            "label": "remove_unsealed_copy",
            "offset": 9,
            "slot": "1",
            "type": "t_bool"
          }
        ],
        "numberOfBytes": "64"
      },
      "t_struct(ProviderSet)20603_storage": {
        "encoding": "inplace",
        "label": "struct ProviderSet",
        "members": [
          {
            "astId": 20600,
            "contract": "contracts/DaoDealClient.sol:DaoDealClient",
            "label": "provider",
            "offset": 0,
            "slot": "0",
            "type": "t_bytes_storage"
          },
          {
            "astId": 20602,
            "contract": "contracts/DaoDealClient.sol:DaoDealClient",
            "label": "valid",
            "offset": 0,
            "slot": "1",
            "type": "t_bool"
          }
        ],
        "numberOfBytes": "64"
      },
      "t_struct(RequestId)20593_storage": {
        "encoding": "inplace",
        "label": "struct RequestId",
        "members": [
          {
            "astId": 20590,
            "contract": "contracts/DaoDealClient.sol:DaoDealClient",
            "label": "requestId",
            "offset": 0,
            "slot": "0",
            "type": "t_bytes32"
          },
          {
            "astId": 20592,
            "contract": "contracts/DaoDealClient.sol:DaoDealClient",
            "label": "valid",
            "offset": 0,
            "slot": "1",
            "type": "t_bool"
          }
        ],
        "numberOfBytes": "64"
      },
      "t_struct(RequestIdx)20598_storage": {
        "encoding": "inplace",
        "label": "struct RequestIdx",
        "members": [
          {
            "astId": 20595,
            "contract": "contracts/DaoDealClient.sol:DaoDealClient",
            "label": "idx",
            "offset": 0,
            "slot": "0",
            "type": "t_uint256"
          },
          {
            "astId": 20597,
            "contract": "contracts/DaoDealClient.sol:DaoDealClient",
            "label": "valid",
            "offset": 0,
            "slot": "1",
            "type": "t_bool"
          }
        ],
        "numberOfBytes": "64"
      },
      "t_uint256": {
        "encoding": "inplace",
        "label": "uint256",
        "numberOfBytes": "32"
      },
      "t_uint64": {
        "encoding": "inplace",
        "label": "uint64",
        "numberOfBytes": "8"
      }
    }
  }
}