{
  "address": "0xD596081aBa4D708AD1182911834764B72fc80195",
  "abi": [
    {
      "inputs": [],
      "stateMutability": "nonpayable",
      "type": "constructor"
    },
    {
      "inputs": [],
      "name": "InvalidShortString",
      "type": "error"
    },
    {
      "inputs": [
        {
          "internalType": "string",
          "name": "str",
          "type": "string"
        }
      ],
      "name": "StringTooLong",
      "type": "error"
    },
    {
      "anonymous": false,
      "inputs": [
        {
          "indexed": true,
          "internalType": "address",
          "name": "owner",
          "type": "address"
        },
        {
          "indexed": true,
          "internalType": "address",
          "name": "spender",
          "type": "address"
        },
        {
          "indexed": false,
          "internalType": "uint256",
          "name": "value",
          "type": "uint256"
        }
      ],
      "name": "Approval",
      "type": "event"
    },
    {
      "anonymous": false,
      "inputs": [
        {
          "indexed": true,
          "internalType": "address",
          "name": "delegator",
          "type": "address"
        },
        {
          "indexed": true,
          "internalType": "address",
          "name": "fromDelegate",
          "type": "address"
        },
        {
          "indexed": true,
          "internalType": "address",
          "name": "toDelegate",
          "type": "address"
        }
      ],
      "name": "DelegateChanged",
      "type": "event"
    },
    {
      "anonymous": false,
      "inputs": [
        {
          "indexed": true,
          "internalType": "address",
          "name": "delegate",
          "type": "address"
        },
        {
          "indexed": false,
          "internalType": "uint256",
          "name": "previousBalance",
          "type": "uint256"
        },
        {
          "indexed": false,
          "internalType": "uint256",
          "name": "newBalance",
          "type": "uint256"
        }
      ],
      "name": "DelegateVotesChanged",
      "type": "event"
    },
    {
      "anonymous": false,
      "inputs": [],
      "name": "EIP712DomainChanged",
      "type": "event"
    },
    {
      "anonymous": false,
      "inputs": [
        {
          "indexed": true,
          "internalType": "address",
          "name": "from",
          "type": "address"
        },
        {
          "indexed": true,
          "internalType": "address",
          "name": "to",
          "type": "address"
        },
        {
          "indexed": false,
          "internalType": "uint256",
          "name": "value",
          "type": "uint256"
        }
      ],
      "name": "Transfer",
      "type": "event"
    },
    {
      "inputs": [],
      "name": "CLOCK_MODE",
      "outputs": [
        {
          "internalType": "string",
          "name": "",
          "type": "string"
        }
      ],
      "stateMutability": "view",
      "type": "function"
    },
    {
      "inputs": [],
      "name": "DOMAIN_SEPARATOR",
      "outputs": [
        {
          "internalType": "bytes32",
          "name": "",
          "type": "bytes32"
        }
      ],
      "stateMutability": "view",
      "type": "function"
    },
    {
      "inputs": [
        {
          "internalType": "address",
          "name": "owner",
          "type": "address"
        },
        {
          "internalType": "address",
          "name": "spender",
          "type": "address"
        }
      ],
      "name": "allowance",
      "outputs": [
        {
          "internalType": "uint256",
          "name": "",
          "type": "uint256"
        }
      ],
      "stateMutability": "view",
      "type": "function"
    },
    {
      "inputs": [
        {
          "internalType": "address",
          "name": "spender",
          "type": "address"
        },
        {
          "internalType": "uint256",
          "name": "amount",
          "type": "uint256"
        }
      ],
      "name": "approve",
      "outputs": [
        {
          "internalType": "bool",
          "name": "",
          "type": "bool"
        }
      ],
      "stateMutability": "nonpayable",
      "type": "function"
    },
    {
      "inputs": [
        {
          "internalType": "address",
          "name": "account",
          "type": "address"
        }
      ],
      "name": "balanceOf",
      "outputs": [
        {
          "internalType": "uint256",
          "name": "",
          "type": "uint256"
        }
      ],
      "stateMutability": "view",
      "type": "function"
    },
    {
      "inputs": [
        {
          "internalType": "address",
          "name": "account",
          "type": "address"
        },
        {
          "internalType": "uint32",
          "name": "pos",
          "type": "uint32"
        }
      ],
      "name": "checkpoints",
      "outputs": [
        {
          "components": [
            {
              "internalType": "uint32",
              "name": "fromBlock",
              "type": "uint32"
            },
            {
              "internalType": "uint224",
              "name": "votes",
              "type": "uint224"
            }
          ],
          "internalType": "struct ERC20Votes.Checkpoint",
          "name": "",
          "type": "tuple"
        }
      ],
      "stateMutability": "view",
      "type": "function"
    },
    {
      "inputs": [],
      "name": "clock",
      "outputs": [
        {
          "internalType": "uint48",
          "name": "",
          "type": "uint48"
        }
      ],
      "stateMutability": "view",
      "type": "function"
    },
    {
      "inputs": [],
      "name": "decimals",
      "outputs": [
        {
          "internalType": "uint8",
          "name": "",
          "type": "uint8"
        }
      ],
      "stateMutability": "view",
      "type": "function"
    },
    {
      "inputs": [
        {
          "internalType": "address",
          "name": "spender",
          "type": "address"
        },
        {
          "internalType": "uint256",
          "name": "subtractedValue",
          "type": "uint256"
        }
      ],
      "name": "decreaseAllowance",
      "outputs": [
        {
          "internalType": "bool",
          "name": "",
          "type": "bool"
        }
      ],
      "stateMutability": "nonpayable",
      "type": "function"
    },
    {
      "inputs": [
        {
          "internalType": "address",
          "name": "delegatee",
          "type": "address"
        }
      ],
      "name": "delegate",
      "outputs": [],
      "stateMutability": "nonpayable",
      "type": "function"
    },
    {
      "inputs": [
        {
          "internalType": "address",
          "name": "delegatee",
          "type": "address"
        },
        {
          "internalType": "uint256",
          "name": "nonce",
          "type": "uint256"
        },
        {
          "internalType": "uint256",
          "name": "expiry",
          "type": "uint256"
        },
        {
          "internalType": "uint8",
          "name": "v",
          "type": "uint8"
        },
        {
          "internalType": "bytes32",
          "name": "r",
          "type": "bytes32"
        },
        {
          "internalType": "bytes32",
          "name": "s",
          "type": "bytes32"
        }
      ],
      "name": "delegateBySig",
      "outputs": [],
      "stateMutability": "nonpayable",
      "type": "function"
    },
    {
      "inputs": [
        {
          "internalType": "address",
          "name": "account",
          "type": "address"
        }
      ],
      "name": "delegates",
      "outputs": [
        {
          "internalType": "address",
          "name": "",
          "type": "address"
        }
      ],
      "stateMutability": "view",
      "type": "function"
    },
    {
      "inputs": [],
      "name": "eip712Domain",
      "outputs": [
        {
          "internalType": "bytes1",
          "name": "fields",
          "type": "bytes1"
        },
        {
          "internalType": "string",
          "name": "name",
          "type": "string"
        },
        {
          "internalType": "string",
          "name": "version",
          "type": "string"
        },
        {
          "internalType": "uint256",
          "name": "chainId",
          "type": "uint256"
        },
        {
          "internalType": "address",
          "name": "verifyingContract",
          "type": "address"
        },
        {
          "internalType": "bytes32",
          "name": "salt",
          "type": "bytes32"
        },
        {
          "internalType": "uint256[]",
          "name": "extensions",
          "type": "uint256[]"
        }
      ],
      "stateMutability": "view",
      "type": "function"
    },
    {
      "inputs": [
        {
          "internalType": "uint256",
          "name": "timepoint",
          "type": "uint256"
        }
      ],
      "name": "getPastTotalSupply",
      "outputs": [
        {
          "internalType": "uint256",
          "name": "",
          "type": "uint256"
        }
      ],
      "stateMutability": "view",
      "type": "function"
    },
    {
      "inputs": [
        {
          "internalType": "address",
          "name": "account",
          "type": "address"
        },
        {
          "internalType": "uint256",
          "name": "timepoint",
          "type": "uint256"
        }
      ],
      "name": "getPastVotes",
      "outputs": [
        {
          "internalType": "uint256",
          "name": "",
          "type": "uint256"
        }
      ],
      "stateMutability": "view",
      "type": "function"
    },
    {
      "inputs": [
        {
          "internalType": "address",
          "name": "account",
          "type": "address"
        }
      ],
      "name": "getVotes",
      "outputs": [
        {
          "internalType": "uint256",
          "name": "",
          "type": "uint256"
        }
      ],
      "stateMutability": "view",
      "type": "function"
    },
    {
      "inputs": [
        {
          "internalType": "address",
          "name": "spender",
          "type": "address"
        },
        {
          "internalType": "uint256",
          "name": "addedValue",
          "type": "uint256"
        }
      ],
      "name": "increaseAllowance",
      "outputs": [
        {
          "internalType": "bool",
          "name": "",
          "type": "bool"
        }
      ],
      "stateMutability": "nonpayable",
      "type": "function"
    },
    {
      "inputs": [],
      "name": "name",
      "outputs": [
        {
          "internalType": "string",
          "name": "",
          "type": "string"
        }
      ],
      "stateMutability": "view",
      "type": "function"
    },
    {
      "inputs": [
        {
          "internalType": "address",
          "name": "owner",
          "type": "address"
        }
      ],
      "name": "nonces",
      "outputs": [
        {
          "internalType": "uint256",
          "name": "",
          "type": "uint256"
        }
      ],
      "stateMutability": "view",
      "type": "function"
    },
    {
      "inputs": [
        {
          "internalType": "address",
          "name": "account",
          "type": "address"
        }
      ],
      "name": "numCheckpoints",
      "outputs": [
        {
          "internalType": "uint32",
          "name": "",
          "type": "uint32"
        }
      ],
      "stateMutability": "view",
      "type": "function"
    },
    {
      "inputs": [
        {
          "internalType": "address",
          "name": "owner",
          "type": "address"
        },
        {
          "internalType": "address",
          "name": "spender",
          "type": "address"
        },
        {
          "internalType": "uint256",
          "name": "value",
          "type": "uint256"
        },
        {
          "internalType": "uint256",
          "name": "deadline",
          "type": "uint256"
        },
        {
          "internalType": "uint8",
          "name": "v",
          "type": "uint8"
        },
        {
          "internalType": "bytes32",
          "name": "r",
          "type": "bytes32"
        },
        {
          "internalType": "bytes32",
          "name": "s",
          "type": "bytes32"
        }
      ],
      "name": "permit",
      "outputs": [],
      "stateMutability": "nonpayable",
      "type": "function"
    },
    {
      "inputs": [],
      "name": "s_maxSupply",
      "outputs": [
        {
          "internalType": "uint256",
          "name": "",
          "type": "uint256"
        }
      ],
      "stateMutability": "view",
      "type": "function"
    },
    {
      "inputs": [],
      "name": "symbol",
      "outputs": [
        {
          "internalType": "string",
          "name": "",
          "type": "string"
        }
      ],
      "stateMutability": "view",
      "type": "function"
    },
    {
      "inputs": [],
      "name": "totalSupply",
      "outputs": [
        {
          "internalType": "uint256",
          "name": "",
          "type": "uint256"
        }
      ],
      "stateMutability": "view",
      "type": "function"
    },
    {
      "inputs": [
        {
          "internalType": "address",
          "name": "to",
          "type": "address"
        },
        {
          "internalType": "uint256",
          "name": "amount",
          "type": "uint256"
        }
      ],
      "name": "transfer",
      "outputs": [
        {
          "internalType": "bool",
          "name": "",
          "type": "bool"
        }
      ],
      "stateMutability": "nonpayable",
      "type": "function"
    },
    {
      "inputs": [
        {
          "internalType": "address",
          "name": "from",
          "type": "address"
        },
        {
          "internalType": "address",
          "name": "to",
          "type": "address"
        },
        {
          "internalType": "uint256",
          "name": "amount",
          "type": "uint256"
        }
      ],
      "name": "transferFrom",
      "outputs": [
        {
          "internalType": "bool",
          "name": "",
          "type": "bool"
        }
      ],
      "stateMutability": "nonpayable",
      "type": "function"
    }
  ],
  "transactionHash": "0x310d89ac445fc8c7daac9c2b0d8150e8a4993e7a29ed25c0068a93dd0c0363e7",
  "args": [],
  "numDeployments": 1,
  "solcInputHash": "69bdd8e63da8879802046a9213aa4749",
  "bytecode": "0x61016060405269d3c21bcecceda1000000600c553480156200002057600080fd5b506040518060400160405280600c81526020016b243cb832ba3934b132aa25a760a11b81525080604051806040016040528060018152602001603160f81b8152506040518060400160405280600c81526020016b243cb832ba3934b132aa25a760a11b815250604051806040016040528060048152602001634249534360e01b8152508160039081620000b491906200087e565b506004620000c382826200087e565b505050620000e16005836200014860201b62000a4d1790919060201c565b61012052620000fe81600662000148602090811b62000a4d17901c565b61014052815160208084019190912060e052815190820120610100524660a0526200012862000198565b60805250503060c05250600c5462000142903390620001f4565b62000c98565b6000602083511015620001685762000160836200020f565b905062000192565b826200017f836200025b60201b62000a7e1760201c565b906200018c90826200087e565b5060ff90505b92915050565b60e05161010051604051600092620001d9927f8b73c3c69bb8fe3d512ecc4cf759cc79239f7b179b0ffacaa9a75d522b39400f924690309060200162000973565b60405160208183030381529060405280519060200120905090565b6200020b82826200025e60201b62000a811760201c565b5050565b600080829050601f8151111562000246578260405163305a27a960e01b81526004016200023d919062000a24565b60405180910390fd5b8051620002538262000a42565b179392505050565b90565b620002758282620002c960201b62000ac81760201c565b6001600160e01b0362000289620003708216565b1115620002aa5760405162461bcd60e51b81526004016200023d9062000ad6565b620002c3600b62000b6a6200037660201b17836200038b565b50505050565b6001600160a01b038216620002f25760405162461bcd60e51b81526004016200023d9062000ae8565b806002600082825462000306919062000b3a565b90915550506001600160a01b038216600081815260208190526040808220805485019055517fddf252ad1be2c89b69c2b068fc378daa952ba7f163c4a11628f55a4df523b3ef906200035a90859062000b50565b60405180910390a36200020b6000838362000539565b60025490565b600062000384828462000b3a565b9392505050565b82546000908190818115620003da5760008781526020902082016000190160408051808201909152905463ffffffff8116825264010000000090046001600160e01b03166020820152620003ef565b60408051808201909152600080825260208201525b905080602001516001600160e01b031693506200040d84868860201c565b92506000821180156200043a57506200042562000551565b65ffffffffffff16816000015163ffffffff16145b156200048e5762000456836200056e60201b62000b761760201c565b60008881526020902083016000190180546001600160e01b03929092166401000000000263ffffffff9092169190911790556200052a565b866040518060400160405280620004c7620004ae6200055160201b60201c565b65ffffffffffff166200059e60201b62000ba31760201c565b63ffffffff168152602001620004e8866200056e60201b62000b761760201c565b6001600160e01b0390811690915282546001810184556000938452602093849020835194909301519091166401000000000263ffffffff909316929092179101555b5050935093915050565b505050565b62000534838383620005c760201b62000bc91760201c565b600062000569436200061360201b62000c001760201c565b905090565b60006001600160e01b038211156200059a5760405162461bcd60e51b81526004016200023d9062000ba5565b5090565b600063ffffffff8211156200059a5760405162461bcd60e51b81526004016200023d9062000bfb565b620005df8383836200053460201b62000bfb1760201c565b6001600160a01b0383811660009081526009602052604080822054858416835291205462000534929182169116836200063e565b600065ffffffffffff8211156200059a5760405162461bcd60e51b81526004016200023d9062000c51565b816001600160a01b0316836001600160a01b031614158015620006615750600081115b1562000534576001600160a01b03831615620006e6576001600160a01b0383166000908152600a6020908152604082208291620006ab919062000769901b62000c2817856200038b565b91509150846001600160a01b0316600080516020620035be8339815191528383604051620006db92919062000c63565b60405180910390a250505b6001600160a01b0382161562000534576001600160a01b0382166000908152600a60209081526040822082916200072a919062000376901b62000b6a17856200038b565b91509150836001600160a01b0316600080516020620035be83398151915283836040516200075a92919062000c63565b60405180910390a25050505050565b600062000384828462000c82565b634e487b7160e01b600052604160045260246000fd5b634e487b7160e01b600052602260045260246000fd5b600281046001821680620007b857607f821691505b602082108103620007cd57620007cd6200078d565b50919050565b6000620001926200025b8381565b620007ec83620007d3565b81546008840282811b60001990911b908116901990911617825550505050565b600062000534818484620007e1565b818110156200020b57620008316000826200080c565b6001016200081b565b601f82111562000534576000818152602090206020601f85010481016020851015620008635750805b620008776020601f8601048301826200081b565b5050505050565b81516001600160401b038111156200089a576200089a62000777565b620008a68254620007a3565b620008b38282856200083a565b6020601f831160018114620008ea5760008415620008d15750858201515b600019600886021c198116600286021786555062000946565b600085815260208120601f198616915b828110156200091c5788850151825560209485019460019092019101620008fa565b86831015620009395784890151600019601f89166008021c191682555b6001600288020188555050505b505050505050565b805b82525050565b60006001600160a01b03821662000192565b620009508162000956565b60a081016200098382886200094e565b6200099260208301876200094e565b620009a160408301866200094e565b620009b060608301856200094e565b620009bf608083018462000968565b9695505050505050565b60005b83811015620009e6578181015183820152602001620009cc565b50506000910152565b6000620009fa825190565b80845260208401935062000a13818560208601620009c9565b601f01601f19169290920192915050565b60208082528101620003848184620009ef565b600062000192825190565b600062000a4d825190565b6020830162000a5c8162000a37565b9250602082101562000a7f5762000a7a600019836020036008021b90565b831692505b5050919050565b603081526000602082017f4552433230566f7465733a20746f74616c20737570706c79207269736b73206f81526f766572666c6f77696e6720766f74657360801b602082015291505b5060400190565b60208082528101620001928162000a86565b602080825281016200019281601f81527f45524332303a206d696e7420746f20746865207a65726f206164647265737300602082015260400190565b634e487b7160e01b600052601160045260246000fd5b8082018082111562000192576200019262000b24565b602081016200019282846200094e565b602781526000602082017f53616665436173743a2076616c756520646f65736e27742066697420696e20328152663234206269747360c81b6020820152915062000acf565b60208082528101620001928162000b60565b602681526000602082017f53616665436173743a2076616c756520646f65736e27742066697420696e203381526532206269747360d01b6020820152915062000acf565b60208082528101620001928162000bb7565b602681526000602082017f53616665436173743a2076616c756520646f65736e27742066697420696e203481526538206269747360d01b6020820152915062000acf565b60208082528101620001928162000c0d565b6040810162000c7382856200094e565b6200038460208301846200094e565b8181038181111562000192576200019262000b24565b60805160a05160c05160e0516101005161012051610140516128cb62000cf360003960006106790152600061064e015260006114c3015260006114a201526000610e4701526000610e7101526000610e9b01526128cb6000f3fe608060405234801561001057600080fd5b50600436106101ae5760003560e01c806370a08231116100ee5780639ab24eb011610097578063c3cda52011610071578063c3cda52014610391578063d505accf146103a4578063dd62ed3e146103b7578063f1127ed8146103f057600080fd5b80639ab24eb014610358578063a457c2d71461036b578063a9059cbb1461037e57600080fd5b80638e539e8c116100c85780638e539e8c1461032857806391ddadf41461033b57806395d89b411461035057600080fd5b806370a08231146102d15780637ecebe00146102fa57806384b0196e1461030d57600080fd5b8063395093511161015b578063587cde1e11610135578063587cde1e1461025a5780635c19a95c146102935780635d641847146102a85780636fcfff45146102b157600080fd5b8063395093511461022c5780633a46b1a81461023f5780634bf5d7e91461025257600080fd5b806323b872dd1161018c57806323b872dd14610202578063313ce567146102155780633644e5151461022457600080fd5b806306fdde03146101b3578063095ea7b3146101d157806318160ddd146101f1575b600080fd5b6101bb610410565b6040516101c891906118fc565b60405180910390f35b6101e46101df36600461194e565b6104a2565b6040516101c89190611995565b6002545b6040516101c891906119a9565b6101e46102103660046119b7565b6104bc565b60126040516101c89190611a10565b6101f56104e2565b6101e461023a36600461194e565b6104f1565b6101f561024d36600461194e565b610530565b6101bb61058b565b610286610268366004611a1e565b6001600160a01b039081166000908152600960205260409020541690565b6040516101c89190611a50565b6102a66102a1366004611a1e565b6105f3565b005b6101f5600c5481565b6102c46102bf366004611a1e565b610600565b6040516101c89190611a6a565b6101f56102df366004611a1e565b6001600160a01b031660009081526020819052604090205490565b6101f5610308366004611a1e565b610622565b610315610640565b6040516101c89796959493929190611afd565b6101f5610336366004611b79565b6106e5565b610343610720565b6040516101c89190611ba8565b6101bb61072b565b6101f5610366366004611a1e565b61073a565b6101e461037936600461194e565b6107bc565b6101e461038c36600461194e565b61081b565b6102a661039f366004611bca565b610829565b6102a66103b2366004611c54565b6108e7565b6101f56103c5366004611cf3565b6001600160a01b03918216600090815260016020908152604080832093909416825291909152205490565b6104036103fe366004611d3d565b6109c9565b6040516101c89190611da3565b60606003805461041f90611dc7565b80601f016020809104026020016040519081016040528092919081815260200182805461044b90611dc7565b80156104985780601f1061046d57610100808354040283529160200191610498565b820191906000526020600020905b81548152906001019060200180831161047b57829003601f168201915b5050505050905090565b6000336104b0818585610c34565b60019150505b92915050565b6000336104ca858285610ce8565b6104d5858585610d44565b60019150505b9392505050565b60006104ec610e3a565b905090565b3360008181526001602090815260408083206001600160a01b03871684529091528120549091906104b0908290869061052b908790611e03565b610c34565b600061053a610720565b65ffffffffffff1682106105695760405162461bcd60e51b815260040161056090611e4d565b60405180910390fd5b6001600160a01b0383166000908152600a602052604090206104db9083610ec5565b606043610596610720565b65ffffffffffff16146105bb5760405162461bcd60e51b815260040161056090611e91565b5060408051808201909152601d81527f6d6f64653d626c6f636b6e756d6265722666726f6d3d64656661756c74000000602082015290565b6105fd3382610fae565b50565b6001600160a01b0381166000908152600a60205260408120546104b690610ba3565b6001600160a01b0381166000908152600760205260408120546104b6565b6000606080828080836106747f0000000000000000000000000000000000000000000000000000000000000000600561103f565b61069f7f0000000000000000000000000000000000000000000000000000000000000000600661103f565b604080516000808252602082019092527f0f000000000000000000000000000000000000000000000000000000000000009b939a50919850469750309650945092509050565b60006106ef610720565b65ffffffffffff1682106107155760405162461bcd60e51b815260040161056090611e4d565b6104b6600b83610ec5565b60006104ec43610c00565b60606004805461041f90611dc7565b6001600160a01b0381166000908152600a602052604081205480156107a9576001600160a01b0383166000908152600a602052604090208054600019830190811061078757610787611eb7565b60009182526020909120015464010000000090046001600160e01b03166107ac565b60005b6001600160e01b03169392505050565b3360008181526001602090815260408083206001600160a01b0387168452909152812054909190838110156108035760405162461bcd60e51b815260040161056090611f2a565b6108108286868403610c34565b506001949350505050565b6000336104b0818585610d44565b834211156108495760405162461bcd60e51b815260040161056090611f6e565b60006108ab6108a37fe48329057bfd03d55e49b547132e39cffd9c1820ad7b9d4c5307691425d15adf8989896040516020016108889493929190611f7e565b604051602081830303815290604052805190602001206110e3565b85858561112b565b90506108b681611153565b86146108d45760405162461bcd60e51b815260040161056090611ff0565b6108de8188610fae565b50505050505050565b834211156109075760405162461bcd60e51b815260040161056090612034565b60007f6e71edae12b1b97f4d1f60370fef10105fa2faae0126114a169c64845d6126c98888886109368c611153565b8960405160200161094c96959493929190612044565b604051602081830303815290604052805190602001209050600061096f826110e3565b9050600061097f8287878761112b565b9050896001600160a01b0316816001600160a01b0316146109b25760405162461bcd60e51b8152600401610560906120d2565b6109bd8a8a8a610c34565b50505050505050505050565b60408051808201909152600080825260208201526001600160a01b0383166000908152600a60205260409020805463ffffffff8416908110610a0d57610a0d611eb7565b60009182526020918290206040805180820190915291015463ffffffff8116825264010000000090046001600160e01b0316918101919091529392505050565b6000602083511015610a6957610a628361117b565b90506104b6565b81610a74848261217f565b5060ff90506104b6565b90565b610a8b8282610ac8565b6002546001600160e01b031015610ab45760405162461bcd60e51b81526004016105609061229d565b610ac2600b610b6a836111d2565b50505050565b6001600160a01b038216610aee5760405162461bcd60e51b8152600401610560906122e1565b8060026000828254610b009190611e03565b90915550506001600160a01b038216600081815260208190526040808220805485019055517fddf252ad1be2c89b69c2b068fc378daa952ba7f163c4a11628f55a4df523b3ef90610b529085906119a9565b60405180910390a3610b6660008383611347565b5050565b60006104db8284611e03565b60006001600160e01b03821115610b9f5760405162461bcd60e51b81526004016105609061234b565b5090565b600063ffffffff821115610b9f5760405162461bcd60e51b8152600401610560906123b5565b6001600160a01b03838116600090815260096020526040808220548584168352912054610bfb92918216911683611352565b505050565b600065ffffffffffff821115610b9f5760405162461bcd60e51b81526004016105609061241f565b60006104db828461242f565b6001600160a01b038316610c5a5760405162461bcd60e51b81526004016105609061249c565b6001600160a01b038216610c805760405162461bcd60e51b815260040161056090612506565b6001600160a01b0380841660008181526001602090815260408083209487168084529490915290819020849055517f8c5be1e5ebec7d5bd14f71427d1e84f3dd0314c0f7b2291e5b200ac8c7c3b92590610cdb9085906119a9565b60405180910390a3505050565b6001600160a01b038381166000908152600160209081526040808320938616835292905220546000198114610ac25781811015610d375760405162461bcd60e51b81526004016105609061254a565b610ac28484848403610c34565b6001600160a01b038316610d6a5760405162461bcd60e51b8152600401610560906125b4565b6001600160a01b038216610d905760405162461bcd60e51b81526004016105609061261e565b6001600160a01b03831660009081526020819052604090205481811015610dc95760405162461bcd60e51b815260040161056090612688565b6001600160a01b0380851660008181526020819052604080822086860390559286168082529083902080548601905591517fddf252ad1be2c89b69c2b068fc378daa952ba7f163c4a11628f55a4df523b3ef90610e279086906119a9565b60405180910390a3610ac2848484611347565b6000306001600160a01b037f000000000000000000000000000000000000000000000000000000000000000016148015610e9357507f000000000000000000000000000000000000000000000000000000000000000046145b15610ebd57507f000000000000000000000000000000000000000000000000000000000000000090565b6104ec61147d565b815460009081816005811115610f1f576000610ee084611513565b610eea908561242f565b600088815260209020909150869082015463ffffffff161115610f0f57809150610f1d565b610f1a816001611e03565b92505b505b80821015610f6c576000610f3383836115fb565b600088815260209020909150869082015463ffffffff161115610f5857809150610f66565b610f63816001611e03565b92505b50610f1f565b8015610f98576000868152602090208101600019015464010000000090046001600160e01b0316610f9b565b60005b6001600160e01b03169695505050505050565b6001600160a01b038281166000818152600960208181526040808420805485845282862054949093528787167fffffffffffffffffffffffff00000000000000000000000000000000000000008416811790915590519190951694919391928592917f3134e8a2e6d97e929a7e54011ea5485d7d196dd5f0ba4d4ef95803e8e3fc257f9190a4610ac2828483611352565b606060ff831461105257610a6283611616565b81805461105e90611dc7565b80601f016020809104026020016040519081016040528092919081815260200182805461108a90611dc7565b80156110d75780601f106110ac576101008083540402835291602001916110d7565b820191906000526020600020905b8154815290600101906020018083116110ba57829003601f168201915b505050505090506104b6565b60006104b66110f0610e3a565b836040517f19010000000000000000000000000000000000000000000000000000000000008152600281019290925260228201526042902090565b600080600061113c87878787611655565b915091506111498161170c565b5095945050505050565b6001600160a01b03811660009081526007602052604090208054600181018255905b50919050565b600080829050601f815111156111bf57826040517f305a27a900000000000000000000000000000000000000000000000000000000815260040161056091906118fc565b80516111ca826126a2565b179392505050565b8254600090819081811561121f5760008781526020902082016000190160408051808201909152905463ffffffff8116825264010000000090046001600160e01b03166020820152611234565b60408051808201909152600080825260208201525b905080602001516001600160e01b0316935061125484868863ffffffff16565b925060008211801561127e5750611269610720565b65ffffffffffff16816000015163ffffffff16145b156112c35761128c83610b76565b60008881526020902083016000190180546001600160e01b03929092166401000000000263ffffffff90921691909117905561133d565b8660405180604001604052806112e76112da610720565b65ffffffffffff16610ba3565b63ffffffff1681526020016112fb86610b76565b6001600160e01b0390811690915282546001810184556000938452602093849020835194909301519091166401000000000263ffffffff909316929092179101555b5050935093915050565b610bfb838383610bc9565b816001600160a01b0316836001600160a01b0316141580156113745750600081115b15610bfb576001600160a01b038316156113f9576001600160a01b0383166000908152600a6020526040812081906113af90610c28856111d2565b91509150846001600160a01b03167fdec2bacdd2f05b59de34da9b523dff8be42e5e38e818c82fdb0bae774387a72483836040516113ee9291906126e1565b60405180910390a250505b6001600160a01b03821615610bfb576001600160a01b0382166000908152600a60205260408120819061142f90610b6a856111d2565b91509150836001600160a01b03167fdec2bacdd2f05b59de34da9b523dff8be42e5e38e818c82fdb0bae774387a724838360405161146e9291906126e1565b60405180910390a25050505050565b60007f8b73c3c69bb8fe3d512ecc4cf759cc79239f7b179b0ffacaa9a75d522b39400f7f00000000000000000000000000000000000000000000000000000000000000007f000000000000000000000000000000000000000000000000000000000000000046306040516020016114f89594939291906126fc565b60405160208183030381529060405280519060200120905090565b60008160000361152557506000919050565b60006001611532846117bb565b901c6001901b9050600181848161154b5761154b612748565b048201901c9050600181848161156357611563612748565b048201901c9050600181848161157b5761157b612748565b048201901c9050600181848161159357611593612748565b048201901c905060018184816115ab576115ab612748565b048201901c905060018184816115c3576115c3612748565b048201901c905060018184816115db576115db612748565b048201901c90506104db818285816115f5576115f5612748565b0461184f565b600061160a600284841861275e565b6104db90848416611e03565b6060600061162383611865565b604080516020808252818301909252919250600091906020820181803683375050509182525060208101929092525090565b6000807f7fffffffffffffffffffffffffffffff5d576e7357a4501ddfe92f46681b20a083111561168c5750600090506003611703565b6000600187878787604051600081526020016040526040516116b19493929190612772565b6020604051602081039080840390855afa1580156116d3573d6000803e3d6000fd5b5050604051601f1901519150506001600160a01b0381166116fc57600060019250925050611703565b9150600090505b94509492505050565b60008160048111156117205761172061278d565b036117285750565b600181600481111561173c5761173c61278d565b036117595760405162461bcd60e51b8152600401610560906127d7565b600281600481111561176d5761176d61278d565b0361178a5760405162461bcd60e51b81526004016105609061281b565b600381600481111561179e5761179e61278d565b036105fd5760405162461bcd60e51b815260040161056090612885565b600080608083901c156117d057608092831c92015b604083901c156117e257604092831c92015b602083901c156117f457602092831c92015b601083901c1561180657601092831c92015b600883901c1561181857600892831c92015b600483901c1561182a57600492831c92015b600283901c1561183c57600292831c92015b600183901c156104b65760010192915050565b600081831061185e57816104db565b5090919050565b600060ff8216601f8111156104b6576040517fb3512b0c00000000000000000000000000000000000000000000000000000000815260040160405180910390fd5b60005b838110156118c15781810151838201526020016118a9565b50506000910152565b60006118d4825190565b8084526020840193506118eb8185602086016118a6565b601f01601f19169290920192915050565b602080825281016104db81846118ca565b60006001600160a01b0382166104b6565b6119278161190d565b81146105fd57600080fd5b80356104b68161191e565b80611927565b80356104b68161193d565b6000806040838503121561196457611964600080fd5b60006119708585611932565b925050602061198185828601611943565b9150509250929050565b8015155b82525050565b602081016104b6828461198b565b8061198f565b602081016104b682846119a3565b6000806000606084860312156119cf576119cf600080fd5b60006119db8686611932565b93505060206119ec86828701611932565b92505060406119fd86828701611943565b9150509250925092565b60ff811661198f565b602081016104b68284611a07565b600060208284031215611a3357611a33600080fd5b6000611a3f8484611932565b949350505050565b61198f8161190d565b602081016104b68284611a47565b63ffffffff811661198f565b602081016104b68284611a5e565b7fff00000000000000000000000000000000000000000000000000000000000000811661198f565b6000611aac83836119a3565b505060200190565b6000611abe825190565b80845260209384019383018060005b83811015611af2578151611ae18882611aa0565b975060208301925050600101611acd565b509495945050505050565b60e08101611b0b828a611a78565b8181036020830152611b1d81896118ca565b90508181036040830152611b3181886118ca565b9050611b4060608301876119a3565b611b4d6080830186611a47565b611b5a60a08301856119a3565b81810360c0830152611b6c8184611ab4565b9998505050505050505050565b600060208284031215611b8e57611b8e600080fd5b6000611a3f8484611943565b65ffffffffffff811661198f565b602081016104b68284611b9a565b60ff8116611927565b80356104b681611bb6565b60008060008060008060c08789031215611be657611be6600080fd5b6000611bf28989611932565b9650506020611c0389828a01611943565b9550506040611c1489828a01611943565b9450506060611c2589828a01611bbf565b9350506080611c3689828a01611943565b92505060a0611c4789828a01611943565b9150509295509295509295565b600080600080600080600060e0888a031215611c7257611c72600080fd5b6000611c7e8a8a611932565b9750506020611c8f8a828b01611932565b9650506040611ca08a828b01611943565b9550506060611cb18a828b01611943565b9450506080611cc28a828b01611bbf565b93505060a0611cd38a828b01611943565b92505060c0611ce48a828b01611943565b91505092959891949750929550565b60008060408385031215611d0957611d09600080fd5b6000611d158585611932565b925050602061198185828601611932565b63ffffffff8116611927565b80356104b681611d26565b60008060408385031215611d5357611d53600080fd5b6000611d5f8585611932565b925050602061198185828601611d32565b6001600160e01b03811661198f565b80516040830190611d908482611a5e565b506020820151610ac26020850182611d70565b604081016104b68284611d7f565b634e487b7160e01b600052602260045260246000fd5b600281046001821680611ddb57607f821691505b60208210810361117557611175611db1565b634e487b7160e01b600052601160045260246000fd5b808201808211156104b6576104b6611ded565b601981526000602082017f4552433230566f7465733a20667574757265206c6f6f6b757000000000000000815291505b5060200190565b602080825281016104b681611e16565b601d81526000602082017f4552433230566f7465733a2062726f6b656e20636c6f636b206d6f646500000081529150611e46565b602080825281016104b681611e5d565b634e487b7160e01b600052604160045260246000fd5b634e487b7160e01b600052603260045260246000fd5b602581526000602082017f45524332303a2064656372656173656420616c6c6f77616e63652062656c6f7781527f207a65726f000000000000000000000000000000000000000000000000000000602082015291505b5060400190565b602080825281016104b681611ecd565b601d81526000602082017f4552433230566f7465733a207369676e6174757265206578706972656400000081529150611e46565b602080825281016104b681611f3a565b60808101611f8c82876119a3565b611f996020830186611a47565b611fa660408301856119a3565b611fb360608301846119a3565b95945050505050565b601981526000602082017f4552433230566f7465733a20696e76616c6964206e6f6e63650000000000000081529150611e46565b602080825281016104b681611fbc565b601d81526000602082017f45524332305065726d69743a206578706972656420646561646c696e6500000081529150611e46565b602080825281016104b681612000565b60c0810161205282896119a3565b61205f6020830188611a47565b61206c6040830187611a47565b61207960608301866119a3565b61208660808301856119a3565b61209360a08301846119a3565b979650505050505050565b601e81526000602082017f45524332305065726d69743a20696e76616c6964207369676e6174757265000081529150611e46565b602080825281016104b68161209e565b60006104b6610a7e8381565b6120f7836120e2565b81546008840282811b60001990911b908116901990911617825550505050565b6000610bfb8184846120ee565b81811015610b6657612137600082612117565b600101612124565b601f821115610bfb576000818152602090206020601f850104810160208510156121665750805b6121786020601f860104830182612124565b5050505050565b815167ffffffffffffffff81111561219957612199611ea1565b6121a38254611dc7565b6121ae82828561213f565b6020601f8311600181146121e257600084156121ca5750858201515b600019600886021c198116600286021786555061223b565b600085815260208120601f198616915b8281101561221257888501518255602094850194600190920191016121f2565b8683101561222e5784890151600019601f89166008021c191682555b6001600288020188555050505b505050505050565b603081526000602082017f4552433230566f7465733a20746f74616c20737570706c79207269736b73206f81527f766572666c6f77696e6720766f7465730000000000000000000000000000000060208201529150611f23565b602080825281016104b681612243565b601f81526000602082017f45524332303a206d696e7420746f20746865207a65726f20616464726573730081529150611e46565b602080825281016104b6816122ad565b602781526000602082017f53616665436173743a2076616c756520646f65736e27742066697420696e203281527f323420626974730000000000000000000000000000000000000000000000000060208201529150611f23565b602080825281016104b6816122f1565b602681526000602082017f53616665436173743a2076616c756520646f65736e27742066697420696e203381527f322062697473000000000000000000000000000000000000000000000000000060208201529150611f23565b602080825281016104b68161235b565b602681526000602082017f53616665436173743a2076616c756520646f65736e27742066697420696e203481527f382062697473000000000000000000000000000000000000000000000000000060208201529150611f23565b602080825281016104b6816123c5565b818103818111156104b6576104b6611ded565b602481526000602082017f45524332303a20617070726f76652066726f6d20746865207a65726f2061646481527f726573730000000000000000000000000000000000000000000000000000000060208201529150611f23565b602080825281016104b681612442565b602281526000602082017f45524332303a20617070726f766520746f20746865207a65726f20616464726581527f737300000000000000000000000000000000000000000000000000000000000060208201529150611f23565b602080825281016104b6816124ac565b601d81526000602082017f45524332303a20696e73756666696369656e7420616c6c6f77616e636500000081529150611e46565b602080825281016104b681612516565b602581526000602082017f45524332303a207472616e736665722066726f6d20746865207a65726f20616481527f647265737300000000000000000000000000000000000000000000000000000060208201529150611f23565b602080825281016104b68161255a565b602381526000602082017f45524332303a207472616e7366657220746f20746865207a65726f206164647281527f657373000000000000000000000000000000000000000000000000000000000060208201529150611f23565b602080825281016104b6816125c4565b602681526000602082017f45524332303a207472616e7366657220616d6f756e742065786365656473206281527f616c616e6365000000000000000000000000000000000000000000000000000060208201529150611f23565b602080825281016104b68161262e565b60006104b6825190565b60006126ac825190565b602083016126b981612698565b925060208210156126da576126d5600019836020036008021b90565b831692505b5050919050565b604081016126ef82856119a3565b6104db60208301846119a3565b60a0810161270a82886119a3565b61271760208301876119a3565b61272460408301866119a3565b61273160608301856119a3565b61273e6080830184611a47565b9695505050505050565b634e487b7160e01b600052601260045260246000fd5b60008261276d5761276d612748565b500490565b6080810161278082876119a3565b611f996020830186611a07565b634e487b7160e01b600052602160045260246000fd5b601881526000602082017f45434453413a20696e76616c6964207369676e6174757265000000000000000081529150611e46565b602080825281016104b6816127a3565b601f81526000602082017f45434453413a20696e76616c6964207369676e6174757265206c656e6774680081529150611e46565b602080825281016104b6816127e7565b602281526000602082017f45434453413a20696e76616c6964207369676e6174757265202773272076616c81527f756500000000000000000000000000000000000000000000000000000000000060208201529150611f23565b602080825281016104b68161282b56fea264697066735822122032e75b9c72a2fddc9348ca8ef1a905c3a2dc1212b6114b1df3a6625e17540cec64736f6c63430008110033dec2bacdd2f05b59de34da9b523dff8be42e5e38e818c82fdb0bae774387a724",
  "devdoc": {
    "kind": "dev",
    "methods": {
      "CLOCK_MODE()": {
        "details": "Description of the clock"
      },
      "DOMAIN_SEPARATOR()": {
        "details": "See {IERC20Permit-DOMAIN_SEPARATOR}."
      },
      "allowance(address,address)": {
        "details": "See {IERC20-allowance}."
      },
      "approve(address,uint256)": {
        "details": "See {IERC20-approve}. NOTE: If `amount` is the maximum `uint256`, the allowance is not updated on `transferFrom`. This is semantically equivalent to an infinite approval. Requirements: - `spender` cannot be the zero address."
      },
      "balanceOf(address)": {
        "details": "See {IERC20-balanceOf}."
      },
      "checkpoints(address,uint32)": {
        "details": "Get the `pos`-th checkpoint for `account`."
      },
      "clock()": {
        "details": "Clock used for flagging checkpoints. Can be overridden to implement timestamp based checkpoints (and voting)."
      },
      "decimals()": {
        "details": "Returns the number of decimals used to get its user representation. For example, if `decimals` equals `2`, a balance of `505` tokens should be displayed to a user as `5.05` (`505 / 10 ** 2`). Tokens usually opt for a value of 18, imitating the relationship between Ether and Wei. This is the default value returned by this function, unless it's overridden. NOTE: This information is only used for _display_ purposes: it in no way affects any of the arithmetic of the contract, including {IERC20-balanceOf} and {IERC20-transfer}."
      },
      "decreaseAllowance(address,uint256)": {
        "details": "Atomically decreases the allowance granted to `spender` by the caller. This is an alternative to {approve} that can be used as a mitigation for problems described in {IERC20-approve}. Emits an {Approval} event indicating the updated allowance. Requirements: - `spender` cannot be the zero address. - `spender` must have allowance for the caller of at least `subtractedValue`."
      },
      "delegate(address)": {
        "details": "Delegate votes from the sender to `delegatee`."
      },
      "delegateBySig(address,uint256,uint256,uint8,bytes32,bytes32)": {
        "details": "Delegates votes from signer to `delegatee`"
      },
      "delegates(address)": {
        "details": "Get the address `account` is currently delegating to."
      },
      "eip712Domain()": {
        "details": "See {EIP-5267}. _Available since v4.9._"
      },
      "getPastTotalSupply(uint256)": {
        "details": "Retrieve the `totalSupply` at the end of `timepoint`. Note, this value is the sum of all balances. It is NOT the sum of all the delegated votes! Requirements: - `timepoint` must be in the past"
      },
      "getPastVotes(address,uint256)": {
        "details": "Retrieve the number of votes for `account` at the end of `timepoint`. Requirements: - `timepoint` must be in the past"
      },
      "getVotes(address)": {
        "details": "Gets the current votes balance for `account`"
      },
      "increaseAllowance(address,uint256)": {
        "details": "Atomically increases the allowance granted to `spender` by the caller. This is an alternative to {approve} that can be used as a mitigation for problems described in {IERC20-approve}. Emits an {Approval} event indicating the updated allowance. Requirements: - `spender` cannot be the zero address."
      },
      "name()": {
        "details": "Returns the name of the token."
      },
      "nonces(address)": {
        "details": "See {IERC20Permit-nonces}."
      },
      "numCheckpoints(address)": {
        "details": "Get number of checkpoints for `account`."
      },
      "permit(address,address,uint256,uint256,uint8,bytes32,bytes32)": {
        "details": "See {IERC20Permit-permit}."
      },
      "symbol()": {
        "details": "Returns the symbol of the token, usually a shorter version of the name."
      },
      "totalSupply()": {
        "details": "See {IERC20-totalSupply}."
      },
      "transfer(address,uint256)": {
        "details": "See {IERC20-transfer}. Requirements: - `to` cannot be the zero address. - the caller must have a balance of at least `amount`."
      },
      "transferFrom(address,address,uint256)": {
        "details": "See {IERC20-transferFrom}. Emits an {Approval} event indicating the updated allowance. This is not required by the EIP. See the note at the beginning of {ERC20}. NOTE: Does not update the allowance if the current allowance is the maximum `uint256`. Requirements: - `from` and `to` cannot be the zero address. - `from` must have a balance of at least `amount`. - the caller must have allowance for ``from``'s tokens of at least `amount`."
      }
    },
    "version": 1
  },
  "userdoc": {
    "kind": "user",
    "methods": {},
    "version": 1
  },
  "storageLayout": {
    "storage": [
      {
        "astId": 5110,
        "contract": "contracts/HypetribeTKN.sol:HypetribeTKN",
        "label": "_balances",
        "offset": 0,
        "slot": "0",
        "type": "t_mapping(t_address,t_uint256)"
      },
      {
        "astId": 5116,
        "contract": "contracts/HypetribeTKN.sol:HypetribeTKN",
        "label": "_allowances",
        "offset": 0,
        "slot": "1",
        "type": "t_mapping(t_address,t_mapping(t_address,t_uint256))"
      },
      {
        "astId": 5118,
        "contract": "contracts/HypetribeTKN.sol:HypetribeTKN",
        "label": "_totalSupply",
        "offset": 0,
        "slot": "2",
        "type": "t_uint256"
      },
      {
        "astId": 5120,
        "contract": "contracts/HypetribeTKN.sol:HypetribeTKN",
        "label": "_name",
        "offset": 0,
        "slot": "3",
        "type": "t_string_storage"
      },
      {
        "astId": 5122,
        "contract": "contracts/HypetribeTKN.sol:HypetribeTKN",
        "label": "_symbol",
        "offset": 0,
        "slot": "4",
        "type": "t_string_storage"
      },
      {
        "astId": 9665,
        "contract": "contracts/HypetribeTKN.sol:HypetribeTKN",
        "label": "_nameFallback",
        "offset": 0,
        "slot": "5",
        "type": "t_string_storage"
      },
      {
        "astId": 9667,
        "contract": "contracts/HypetribeTKN.sol:HypetribeTKN",
        "label": "_versionFallback",
        "offset": 0,
        "slot": "6",
        "type": "t_string_storage"
      },
      {
        "astId": 5782,
        "contract": "contracts/HypetribeTKN.sol:HypetribeTKN",
        "label": "_nonces",
        "offset": 0,
        "slot": "7",
        "type": "t_mapping(t_address,t_struct(Counter)8643_storage)"
      },
      {
        "astId": 5790,
        "contract": "contracts/HypetribeTKN.sol:HypetribeTKN",
        "label": "_PERMIT_TYPEHASH_DEPRECATED_SLOT",
        "offset": 0,
        "slot": "8",
        "type": "t_bytes32"
      },
      {
        "astId": 5957,
        "contract": "contracts/HypetribeTKN.sol:HypetribeTKN",
        "label": "_delegates",
        "offset": 0,
        "slot": "9",
        "type": "t_mapping(t_address,t_address)"
      },
      {
        "astId": 5963,
        "contract": "contracts/HypetribeTKN.sol:HypetribeTKN",
        "label": "_checkpoints",
        "offset": 0,
        "slot": "10",
        "type": "t_mapping(t_address,t_array(t_struct(Checkpoint)5948_storage)dyn_storage)"
      },
      {
        "astId": 5967,
        "contract": "contracts/HypetribeTKN.sol:HypetribeTKN",
        "label": "_totalSupplyCheckpoints",
        "offset": 0,
        "slot": "11",
        "type": "t_array(t_struct(Checkpoint)5948_storage)dyn_storage"
      },
      {
        "astId": 21797,
        "contract": "contracts/HypetribeTKN.sol:HypetribeTKN",
        "label": "s_maxSupply",
        "offset": 0,
        "slot": "12",
        "type": "t_uint256"
      }
    ],
    "types": {
      "t_address": {
        "encoding": "inplace",
        "label": "address",
        "numberOfBytes": "20"
      },
      "t_array(t_struct(Checkpoint)5948_storage)dyn_storage": {
        "base": "t_struct(Checkpoint)5948_storage",
        "encoding": "dynamic_array",
        "label": "struct ERC20Votes.Checkpoint[]",
        "numberOfBytes": "32"
      },
      "t_bytes32": {
        "encoding": "inplace",
        "label": "bytes32",
        "numberOfBytes": "32"
      },
      "t_mapping(t_address,t_address)": {
        "encoding": "mapping",
        "key": "t_address",
        "label": "mapping(address => address)",
        "numberOfBytes": "32",
        "value": "t_address"
      },
      "t_mapping(t_address,t_array(t_struct(Checkpoint)5948_storage)dyn_storage)": {
        "encoding": "mapping",
        "key": "t_address",
        "label": "mapping(address => struct ERC20Votes.Checkpoint[])",
        "numberOfBytes": "32",
        "value": "t_array(t_struct(Checkpoint)5948_storage)dyn_storage"
      },
      "t_mapping(t_address,t_mapping(t_address,t_uint256))": {
        "encoding": "mapping",
        "key": "t_address",
        "label": "mapping(address => mapping(address => uint256))",
        "numberOfBytes": "32",
        "value": "t_mapping(t_address,t_uint256)"
      },
      "t_mapping(t_address,t_struct(Counter)8643_storage)": {
        "encoding": "mapping",
        "key": "t_address",
        "label": "mapping(address => struct Counters.Counter)",
        "numberOfBytes": "32",
        "value": "t_struct(Counter)8643_storage"
      },
      "t_mapping(t_address,t_uint256)": {
        "encoding": "mapping",
        "key": "t_address",
        "label": "mapping(address => uint256)",
        "numberOfBytes": "32",
        "value": "t_uint256"
      },
      "t_string_storage": {
        "encoding": "bytes",
        "label": "string",
        "numberOfBytes": "32"
      },
      "t_struct(Checkpoint)5948_storage": {
        "encoding": "inplace",
        "label": "struct ERC20Votes.Checkpoint",
        "members": [
          {
            "astId": 5945,
            "contract": "contracts/HypetribeTKN.sol:HypetribeTKN",
            "label": "fromBlock",
            "offset": 0,
            "slot": "0",
            "type": "t_uint32"
          },
          {
            "astId": 5947,
            "contract": "contracts/HypetribeTKN.sol:HypetribeTKN",
            "label": "votes",
            "offset": 4,
            "slot": "0",
            "type": "t_uint224"
          }
        ],
        "numberOfBytes": "32"
      },
      "t_struct(Counter)8643_storage": {
        "encoding": "inplace",
        "label": "struct Counters.Counter",
        "members": [
          {
            "astId": 8642,
            "contract": "contracts/HypetribeTKN.sol:HypetribeTKN",
            "label": "_value",
            "offset": 0,
            "slot": "0",
            "type": "t_uint256"
          }
        ],
        "numberOfBytes": "32"
      },
      "t_uint224": {
        "encoding": "inplace",
        "label": "uint224",
        "numberOfBytes": "28"
      },
      "t_uint256": {
        "encoding": "inplace",
        "label": "uint256",
        "numberOfBytes": "32"
      },
      "t_uint32": {
        "encoding": "inplace",
        "label": "uint32",
        "numberOfBytes": "4"
      }
    }
  }
}